{
  "_format": "hh3-artifact-1",
  "contractName": "CourseRegistry",
  "sourceName": "contracts/CourseRegistry.sol",
  "abi": [
    {
      "inputs": [
        {
          "internalType": "address",
          "name": "_owcTokenAddress",
          "type": "address"
        }
      ],
      "stateMutability": "nonpayable",
      "type": "constructor"
    },
    {
      "inputs": [
        {
          "internalType": "address",
          "name": "owner",
          "type": "address"
        }
      ],
      "name": "OwnableInvalidOwner",
      "type": "error"
    },
    {
      "inputs": [
        {
          "internalType": "address",
          "name": "account",
          "type": "address"
        }
      ],
      "name": "OwnableUnauthorizedAccount",
      "type": "error"
    },
    {
      "anonymous": false,
      "inputs": [
        {
          "indexed": false,
          "internalType": "string",
          "name": "courseName",
          "type": "string"
        },
        {
          "indexed": true,
          "internalType": "address",
          "name": "student",
          "type": "address"
        },
        {
          "indexed": false,
          "internalType": "uint256",
          "name": "reward",
          "type": "uint256"
        }
      ],
      "name": "CourseCompleted",
      "type": "event"
    },
    {
      "anonymous": false,
      "inputs": [
        {
          "indexed": false,
          "internalType": "string",
          "name": "courseName",
          "type": "string"
        },
        {
          "indexed": true,
          "internalType": "address",
          "name": "creator",
          "type": "address"
        },
        {
          "indexed": false,
          "internalType": "uint256",
          "name": "price",
          "type": "uint256"
        }
      ],
      "name": "CourseCreated",
      "type": "event"
    },
    {
      "anonymous": false,
      "inputs": [
        {
          "indexed": false,
          "internalType": "string",
          "name": "courseName",
          "type": "string"
        },
        {
          "indexed": true,
          "internalType": "address",
          "name": "student",
          "type": "address"
        },
        {
          "indexed": false,
          "internalType": "uint256",
          "name": "price",
          "type": "uint256"
        }
      ],
      "name": "CoursePurchased",
      "type": "event"
    },
    {
      "anonymous": false,
      "inputs": [
        {
          "indexed": true,
          "internalType": "address",
          "name": "previousOwner",
          "type": "address"
        },
        {
          "indexed": true,
          "internalType": "address",
          "name": "newOwner",
          "type": "address"
        }
      ],
      "name": "OwnershipTransferred",
      "type": "event"
    },
    {
      "anonymous": false,
      "inputs": [
        {
          "indexed": true,
          "internalType": "address",
          "name": "funder",
          "type": "address"
        },
        {
          "indexed": false,
          "internalType": "uint256",
          "name": "amount",
          "type": "uint256"
        }
      ],
      "name": "RewardPoolFunded",
      "type": "event"
    },
    {
      "anonymous": false,
      "inputs": [
        {
          "indexed": true,
          "internalType": "address",
          "name": "admin",
          "type": "address"
        },
        {
          "indexed": false,
          "internalType": "uint256",
          "name": "amount",
          "type": "uint256"
        }
      ],
      "name": "RewardPoolWithdrawn",
      "type": "event"
    },
    {
      "inputs": [],
      "name": "COMPLETION_REWARD",
      "outputs": [
        {
          "internalType": "uint256",
          "name": "",
          "type": "uint256"
        }
      ],
      "stateMutability": "view",
      "type": "function"
    },
    {
      "inputs": [
        {
          "internalType": "string",
          "name": "courseName",
          "type": "string"
        }
      ],
      "name": "completeCourse",
      "outputs": [],
      "stateMutability": "nonpayable",
      "type": "function"
    },
    {
      "inputs": [
        {
          "internalType": "string",
          "name": "",
          "type": "string"
        },
        {
          "internalType": "address",
          "name": "",
          "type": "address"
        }
      ],
      "name": "courseCompleted",
      "outputs": [
        {
          "internalType": "bool",
          "name": "",
          "type": "bool"
        }
      ],
      "stateMutability": "view",
      "type": "function"
    },
    {
      "inputs": [
        {
          "internalType": "string",
          "name": "",
          "type": "string"
        }
      ],
      "name": "courses",
      "outputs": [
        {
          "internalType": "uint256",
          "name": "price",
          "type": "uint256"
        },
        {
          "internalType": "address",
          "name": "creator",
          "type": "address"
        }
      ],
      "stateMutability": "view",
      "type": "function"
    },
    {
      "inputs": [
        {
          "internalType": "string",
          "name": "courseName",
          "type": "string"
        },
        {
          "internalType": "uint256",
          "name": "price",
          "type": "uint256"
        }
      ],
      "name": "createCourse",
      "outputs": [],
      "stateMutability": "nonpayable",
      "type": "function"
    },
    {
      "inputs": [
        {
          "internalType": "uint256",
          "name": "amount",
          "type": "uint256"
        }
      ],
      "name": "fundRewardPool",
      "outputs": [],
      "stateMutability": "nonpayable",
      "type": "function"
    },
    {
      "inputs": [
        {
          "internalType": "string",
          "name": "courseName",
          "type": "string"
        }
      ],
      "name": "getCompletedStudents",
      "outputs": [
        {
          "internalType": "address[]",
          "name": "",
          "type": "address[]"
        }
      ],
      "stateMutability": "view",
      "type": "function"
    },
    {
      "inputs": [
        {
          "internalType": "string",
          "name": "courseName",
          "type": "string"
        }
      ],
      "name": "getCourseCreator",
      "outputs": [
        {
          "internalType": "address",
          "name": "",
          "type": "address"
        }
      ],
      "stateMutability": "view",
      "type": "function"
    },
    {
      "inputs": [
        {
          "internalType": "string",
          "name": "courseName",
          "type": "string"
        }
      ],
      "name": "getCoursePrice",
      "outputs": [
        {
          "internalType": "uint256",
          "name": "",
          "type": "uint256"
        }
      ],
      "stateMutability": "view",
      "type": "function"
    },
    {
      "inputs": [
        {
          "internalType": "string",
          "name": "courseName",
          "type": "string"
        }
      ],
      "name": "getCourseStudents",
      "outputs": [
        {
          "internalType": "address[]",
          "name": "",
          "type": "address[]"
        }
      ],
      "stateMutability": "view",
      "type": "function"
    },
    {
      "inputs": [],
      "name": "getRewardPool",
      "outputs": [
        {
          "internalType": "uint256",
          "name": "",
          "type": "uint256"
        }
      ],
      "stateMutability": "view",
      "type": "function"
    },
    {
      "inputs": [
        {
          "internalType": "address",
          "name": "student",
          "type": "address"
        }
      ],
      "name": "getStudentTotalRewards",
      "outputs": [
        {
          "internalType": "uint256",
          "name": "",
          "type": "uint256"
        }
      ],
      "stateMutability": "view",
      "type": "function"
    },
    {
      "inputs": [
        {
          "internalType": "string",
          "name": "courseName",
          "type": "string"
        },
        {
          "internalType": "address",
          "name": "student",
          "type": "address"
        }
      ],
      "name": "hasCourseCompleted",
      "outputs": [
        {
          "internalType": "bool",
          "name": "",
          "type": "bool"
        }
      ],
      "stateMutability": "view",
      "type": "function"
    },
    {
      "inputs": [
        {
          "internalType": "string",
          "name": "courseName",
          "type": "string"
        },
        {
          "internalType": "address",
          "name": "student",
          "type": "address"
        }
      ],
      "name": "hasPurchased",
      "outputs": [
        {
          "internalType": "bool",
          "name": "",
          "type": "bool"
        }
      ],
      "stateMutability": "view",
      "type": "function"
    },
    {
      "inputs": [],
      "name": "owcToken",
      "outputs": [
        {
          "internalType": "contract IERC20",
          "name": "",
          "type": "address"
        }
      ],
      "stateMutability": "view",
      "type": "function"
    },
    {
      "inputs": [],
      "name": "owner",
      "outputs": [
        {
          "internalType": "address",
          "name": "",
          "type": "address"
        }
      ],
      "stateMutability": "view",
      "type": "function"
    },
    {
      "inputs": [
        {
          "internalType": "string",
          "name": "courseName",
          "type": "string"
        }
      ],
      "name": "purchaseCourse",
      "outputs": [],
      "stateMutability": "nonpayable",
      "type": "function"
    },
    {
      "inputs": [],
      "name": "renounceOwnership",
      "outputs": [],
      "stateMutability": "nonpayable",
      "type": "function"
    },
    {
      "inputs": [],
      "name": "rewardPool",
      "outputs": [
        {
          "internalType": "uint256",
          "name": "",
          "type": "uint256"
        }
      ],
      "stateMutability": "view",
      "type": "function"
    },
    {
      "inputs": [
        {
          "internalType": "address",
          "name": "",
          "type": "address"
        }
      ],
      "name": "totalRewardsEarned",
      "outputs": [
        {
          "internalType": "uint256",
          "name": "",
          "type": "uint256"
        }
      ],
      "stateMutability": "view",
      "type": "function"
    },
    {
      "inputs": [
        {
          "internalType": "address",
          "name": "newOwner",
          "type": "address"
        }
      ],
      "name": "transferOwnership",
      "outputs": [],
      "stateMutability": "nonpayable",
      "type": "function"
    },
    {
      "inputs": [
        {
          "internalType": "uint256",
          "name": "amount",
          "type": "uint256"
        }
      ],
      "name": "withdrawFromRewardPool",
      "outputs": [],
      "stateMutability": "nonpayable",
      "type": "function"
    }
  ],
  "bytecode": "0x608060405234801561000f575f5ffd5b5060405161196838038061196883398101604081905261002e916100d5565b338061005357604051631e4fbdf760e01b81525f600482015260240160405180910390fd5b61005c81610086565b50600180546001600160a01b0319166001600160a01b03929092169190911790555f600355610102565b5f80546001600160a01b038381166001600160a01b0319831681178455604051919092169283917f8be0079c531659141344cd1fd0a4f28419497f9722a3daafe3b4186f6b6457e09190a35050565b5f602082840312156100e5575f5ffd5b81516001600160a01b03811681146100fb575f5ffd5b9392505050565b6118598061010f5f395ff3fe608060405234801561000f575f5ffd5b506004361061013d575f3560e01c8063715018a6116100b4578063e1f702be11610079578063e1f702be14610314578063e4f24cb014610327578063e505e3f314610346578063f2fde38b1461034e578063f4a42e2014610361578063fee122ef14610374575f5ffd5b8063715018a6146102855780638da5cb5b1461028d57806398553898146102b1578063a1db0e27146102c4578063ae62766c146102d7575f5ffd5b80632dc6a5b8116101055780632dc6a5b8146101bb5780632f7385b7146101de5780634fba1577146101f15780635d1c6dce1461021157806366666aa91461026957806367589b6f14610272575f5ffd5b80630eb6bc63146101415780631b8b13a7146101565780631d583e0d1461016d57806321a8473b14610180578063265f5850146101a8575b5f5ffd5b61015461014f3660046115d1565b610387565b005b6003545b6040519081526020015b60405180910390f35b61015461017b36600461160b565b61069d565b61015a61018e36600461163d565b6001600160a01b03165f9081526005602052604090205490565b61015a6101b63660046115d1565b610963565b6101ce6101c936600461165d565b61098a565b6040519015158152602001610164565b6101ce6101ec36600461165d565b610a5e565b6102046101ff3660046115d1565b610aa0565b60405161016491906116a8565b61024c61021f3660046115d1565b8051602081830181018051600282529282019190930120915280546001909101546001600160a01b031682565b604080519283526001600160a01b03909116602083015201610164565b61015a60035481565b6101546102803660046115d1565b610b1b565b610154610e21565b5f546001600160a01b03165b6040516001600160a01b039091168152602001610164565b600154610299906001600160a01b031681565b6101546102d23660046116f3565b610e34565b6101ce6102e536600461165d565b81516020818401810180516004825292820194820194909420919093529091525f908152604090205460ff1681565b6102996103223660046115d1565b610fc4565b61015a61033536600461163d565b60056020525f908152604090205481565b61015a603281565b61015461035c36600461163d565b610ff7565b61020461036f3660046115d1565b611034565b61015461038236600461160b565b61124b565b5f6002826040516103989190611735565b908152602001604051809103902090505f815f0154116103f75760405162461bcd60e51b815260206004820152601560248201527410dbdd5c9cd948191bd95cc81b9bdd08195e1a5cdd605a1b60448201526064015b60405180910390fd5b61040182336113ef565b6104585760405162461bcd60e51b815260206004820152602260248201527f596f75206d7573742070757263686173652074686520636f75727365206669726044820152611cdd60f21b60648201526084016103ee565b6004826040516104689190611735565b9081526040805160209281900383019020335f908152925290205460ff16156104d35760405162461bcd60e51b815260206004820152601860248201527f436f7572736520616c726561647920636f6d706c65746564000000000000000060448201526064016103ee565b603260035410156105265760405162461bcd60e51b815260206004820152601860248201527f496e73756666696369656e742072657761726420706f6f6c000000000000000060448201526064016103ee565b60016004836040516105389190611735565b9081526040805160209281900383019020335f908152908352818120805460ff1916941515949094179093556005909152812080546032929061057c90849061175f565b92505081905550603260035f8282546105959190611772565b909155505060015460405163a9059cbb60e01b8152336004820152603260248201525f916001600160a01b03169063a9059cbb906044016020604051808303815f875af11580156105e8573d5f5f3e3d5ffd5b505050506040513d601f19601f8201168201806040525081019061060c9190611785565b9050806106545760405162461bcd60e51b815260206004820152601660248201527514995dd85c99081d1c985b9cd9995c8819985a5b195960521b60448201526064016103ee565b336001600160a01b03167f0c5dc4b9d98c69600cc80d62ec624a80847c4004fb4b7f7431a903b4a5f20e7f8460326040516106909291906117a4565b60405180910390a2505050565b6106a56114b7565b5f81116106f45760405162461bcd60e51b815260206004820152601d60248201527f416d6f756e74206d7573742062652067726561746572207468616e203000000060448201526064016103ee565b6001546040516370a0823160e01b815233600482015282916001600160a01b0316906370a0823190602401602060405180830381865afa15801561073a573d5f5f3e3d5ffd5b505050506040513d601f19601f8201168201806040525081019061075e91906117e0565b10156107a35760405162461bcd60e51b8152602060048201526014602482015273496e73756666696369656e742062616c616e636560601b60448201526064016103ee565b600154604051636eb1769f60e11b815233600482015230602482015282916001600160a01b03169063dd62ed3e90604401602060405180830381865afa1580156107ef573d5f5f3e3d5ffd5b505050506040513d601f19601f8201168201806040525081019061081391906117e0565b101561085a5760405162461bcd60e51b8152602060048201526016602482015275496e73756666696369656e7420616c6c6f77616e636560501b60448201526064016103ee565b6001546040516323b872dd60e01b8152336004820152306024820152604481018390525f916001600160a01b0316906323b872dd906064016020604051808303815f875af11580156108ae573d5f5f3e3d5ffd5b505050506040513d601f19601f820116820180604052508101906108d29190611785565b9050806109135760405162461bcd60e51b815260206004820152600f60248201526e151c985b9cd9995c8819985a5b1959608a1b60448201526064016103ee565b8160035f828254610924919061175f565b909155505060405182815233907fd3c7d1587d8f93bae0fcfc5a820d2187e755a75ec28a06c20a9da047e1b01eb5906020015b60405180910390a25050565b5f6002826040516109749190611735565b9081526040519081900360200190205492915050565b5f5f60028460405161099c9190611735565b90815260408051918290036020908101832060020180548083028501830190935282845291908301828280156109f957602002820191905f5260205f20905b81546001600160a01b031681526001909101906020018083116109db575b509394505f93505050505b8151811015610a5257836001600160a01b0316828281518110610a2957610a296117f7565b60200260200101516001600160a01b031603610a4a57600192505050610a58565b600101610a04565b505f9150505b92915050565b5f600483604051610a6f9190611735565b908152604080519182900360209081019092206001600160a01b0385165f908152925290205460ff16905092915050565b6060600282604051610ab29190611735565b9081526040805191829003602090810183206002018054808302850183019093528284529190830182828015610b0f57602002820191905f5260205f20905b81546001600160a01b03168152600190910190602001808311610af1575b50505050509050919050565b5f600282604051610b2c9190611735565b908152602001604051809103902090505f815f015411610b865760405162461bcd60e51b815260206004820152601560248201527410dbdd5c9cd948191bd95cc81b9bdd08195e1a5cdd605a1b60448201526064016103ee565b80546001546040516370a0823160e01b81523360048201526001600160a01b03909116906370a0823190602401602060405180830381865afa158015610bce573d5f5f3e3d5ffd5b505050506040513d601f19601f82011682018060405250810190610bf291906117e0565b1015610c405760405162461bcd60e51b815260206004820152601860248201527f496e73756666696369656e74204f57432062616c616e6365000000000000000060448201526064016103ee565b8054600154604051636eb1769f60e11b81523360048201523060248201526001600160a01b039091169063dd62ed3e90604401602060405180830381865afa158015610c8e573d5f5f3e3d5ffd5b505050506040513d601f19601f82011682018060405250810190610cb291906117e0565b1015610cf95760405162461bcd60e51b8152602060048201526016602482015275496e73756666696369656e7420616c6c6f77616e636560501b60448201526064016103ee565b600180549082015482546040516323b872dd60e01b81523360048201526001600160a01b03928316602482015260448101919091525f9291909116906323b872dd906064016020604051808303815f875af1158015610d5a573d5f5f3e3d5ffd5b505050506040513d601f19601f82011682018060405250810190610d7e9190611785565b905080610dc55760405162461bcd60e51b8152602060048201526015602482015274151bdad95b881d1c985b9cd9995c8819985a5b1959605a1b60448201526064016103ee565b6002820180546001810182555f91825260209091200180546001600160a01b0319163390811790915582546040517f716e6395af1503b6908e71b25e3456736b92afb151fd68f910dac3558c2a394d91610690918791906117a4565b610e296114b7565b610e325f6114e3565b565b5f8111610e835760405162461bcd60e51b815260206004820152601c60248201527f5072696365206d7573742062652067726561746572207468616e20300000000060448201526064016103ee565b600282604051610e939190611735565b9081526040519081900360200190205415610ee85760405162461bcd60e51b8152602060048201526015602482015274436f7572736520616c72656164792065786973747360581b60448201526064016103ee565b80600283604051610ef99190611735565b908152604051908190036020018120919091553390600290610f1c908590611735565b90815260405190819003602001812060010180546001600160a01b03939093166001600160a01b031990931692909217909155600290610f5d908490611735565b908152604051908190036020908101822060020180546001810182555f9182529190200180546001600160a01b03191633908117909155907f046f45bcceb06d1fd12aab61a8f4280d1ad879cc6c452a315b3dcc8108f2d1079061095790859085906117a4565b5f600282604051610fd59190611735565b908152604051908190036020019020600101546001600160a01b031692915050565b610fff6114b7565b6001600160a01b03811661102857604051631e4fbdf760e01b81525f60048201526024016103ee565b611031816114e3565b50565b60605f6002836040516110479190611735565b908152602001604051809103902090505f816002018054806020026020016040519081016040528092919081815260200182805480156110ae57602002820191905f5260205f20905b81546001600160a01b03168152600190910190602001808311611090575b509394505f935083925050505b8251811015611136576004866040516110d49190611735565b90815260200160405180910390205f8483815181106110f5576110f56117f7565b6020908102919091018101516001600160a01b031682528101919091526040015f205460ff161561112e578161112a8161180b565b9250505b6001016110bb565b505f8167ffffffffffffffff81111561115157611151611532565b60405190808252806020026020018201604052801561117a578160200160208202803683370190505b5090505f805b845181101561123f576004886040516111999190611735565b90815260200160405180910390205f8683815181106111ba576111ba6117f7565b6020908102919091018101516001600160a01b031682528101919091526040015f205460ff1615611237578481815181106111f7576111f76117f7565b6020026020010151838381518110611211576112116117f7565b6001600160a01b0390921660209283029190910190910152816112338161180b565b9250505b600101611180565b50909695505050505050565b6112536114b7565b5f81116112a25760405162461bcd60e51b815260206004820152601d60248201527f416d6f756e74206d7573742062652067726561746572207468616e203000000060448201526064016103ee565b8060035410156112f45760405162461bcd60e51b815260206004820181905260248201527f496e73756666696369656e742072657761726420706f6f6c2062616c616e636560448201526064016103ee565b60015460405163a9059cbb60e01b8152336004820152602481018390525f916001600160a01b03169063a9059cbb906044016020604051808303815f875af1158015611342573d5f5f3e3d5ffd5b505050506040513d601f19601f820116820180604052508101906113669190611785565b9050806113a75760405162461bcd60e51b815260206004820152600f60248201526e151c985b9cd9995c8819985a5b1959608a1b60448201526064016103ee565b8160035f8282546113b89190611772565b909155505060405182815233907fd64fd74db8f23bbb1e72895098d38c54d189117756b92af4f3efad317ef6f7e690602001610957565b5f5f6002846040516114019190611735565b908152604080519182900360209081018320600201805480830285018301909352828452919083018282801561145e57602002820191905f5260205f20905b81546001600160a01b03168152600190910190602001808311611440575b509394505f93505050505b8151811015610a5257836001600160a01b031682828151811061148e5761148e6117f7565b60200260200101516001600160a01b0316036114af57600192505050610a58565b600101611469565b5f546001600160a01b03163314610e325760405163118cdaa760e01b81523360048201526024016103ee565b5f80546001600160a01b038381166001600160a01b0319831681178455604051919092169283917f8be0079c531659141344cd1fd0a4f28419497f9722a3daafe3b4186f6b6457e09190a35050565b634e487b7160e01b5f52604160045260245ffd5b5f82601f830112611555575f5ffd5b813567ffffffffffffffff81111561156f5761156f611532565b604051601f8201601f19908116603f0116810167ffffffffffffffff8111828210171561159e5761159e611532565b6040528181528382016020018510156115b5575f5ffd5b816020850160208301375f918101602001919091529392505050565b5f602082840312156115e1575f5ffd5b813567ffffffffffffffff8111156115f7575f5ffd5b61160384828501611546565b949350505050565b5f6020828403121561161b575f5ffd5b5035919050565b80356001600160a01b0381168114611638575f5ffd5b919050565b5f6020828403121561164d575f5ffd5b61165682611622565b9392505050565b5f5f6040838503121561166e575f5ffd5b823567ffffffffffffffff811115611684575f5ffd5b61169085828601611546565b92505061169f60208401611622565b90509250929050565b602080825282518282018190525f918401906040840190835b818110156116e85783516001600160a01b03168352602093840193909201916001016116c1565b509095945050505050565b5f5f60408385031215611704575f5ffd5b823567ffffffffffffffff81111561171a575f5ffd5b61172685828601611546565b95602094909401359450505050565b5f82518060208501845e5f920191825250919050565b634e487b7160e01b5f52601160045260245ffd5b80820180821115610a5857610a5861174b565b81810381811115610a5857610a5861174b565b5f60208284031215611795575f5ffd5b81518015158114611656575f5ffd5b604081525f83518060408401528060208601606085015e5f606082850101526060601f19601f8301168401019150508260208301529392505050565b5f602082840312156117f0575f5ffd5b5051919050565b634e487b7160e01b5f52603260045260245ffd5b5f6001820161181c5761181c61174b565b506001019056fea26469706673582212202201f94e310e8ba1af3cde0c65ef5a6a0c039516897420103cd5cc25004774a864736f6c634300081c0033",
  "linkReferences": {},
  "deployedLinkReferences": {},
  "immutableReferences": {},
  "inputSourceName": "project/contracts/CourseRegistry.sol",
  "buildInfoId": "solc-0_8_28-8df0412ed6282b4b81c68bd779e38e42aaa976f5"
}