{
  "_format": "hh3-artifact-1",
  "contractName": "OWCToken",
  "sourceName": "contracts/OWCToken.sol",
  "abi": [
    {
      "inputs": [],
      "stateMutability": "nonpayable",
      "type": "constructor"
    },
    {
      "inputs": [
        {
          "internalType": "address",
          "name": "spender",
          "type": "address"
        },
        {
          "internalType": "uint256",
          "name": "allowance",
          "type": "uint256"
        },
        {
          "internalType": "uint256",
          "name": "needed",
          "type": "uint256"
        }
      ],
      "name": "ERC20InsufficientAllowance",
      "type": "error"
    },
    {
      "inputs": [
        {
          "internalType": "address",
          "name": "sender",
          "type": "address"
        },
        {
          "internalType": "uint256",
          "name": "balance",
          "type": "uint256"
        },
        {
          "internalType": "uint256",
          "name": "needed",
          "type": "uint256"
        }
      ],
      "name": "ERC20InsufficientBalance",
      "type": "error"
    },
    {
      "inputs": [
        {
          "internalType": "address",
          "name": "approver",
          "type": "address"
        }
      ],
      "name": "ERC20InvalidApprover",
      "type": "error"
    },
    {
      "inputs": [
        {
          "internalType": "address",
          "name": "receiver",
          "type": "address"
        }
      ],
      "name": "ERC20InvalidReceiver",
      "type": "error"
    },
    {
      "inputs": [
        {
          "internalType": "address",
          "name": "sender",
          "type": "address"
        }
      ],
      "name": "ERC20InvalidSender",
      "type": "error"
    },
    {
      "inputs": [
        {
          "internalType": "address",
          "name": "spender",
          "type": "address"
        }
      ],
      "name": "ERC20InvalidSpender",
      "type": "error"
    },
    {
      "inputs": [
        {
          "internalType": "address",
          "name": "owner",
          "type": "address"
        }
      ],
      "name": "OwnableInvalidOwner",
      "type": "error"
    },
    {
      "inputs": [
        {
          "internalType": "address",
          "name": "account",
          "type": "address"
        }
      ],
      "name": "OwnableUnauthorizedAccount",
      "type": "error"
    },
    {
      "anonymous": false,
      "inputs": [
        {
          "indexed": true,
          "internalType": "address",
          "name": "owner",
          "type": "address"
        },
        {
          "indexed": true,
          "internalType": "address",
          "name": "spender",
          "type": "address"
        },
        {
          "indexed": false,
          "internalType": "uint256",
          "name": "value",
          "type": "uint256"
        }
      ],
      "name": "Approval",
      "type": "event"
    },
    {
      "anonymous": false,
      "inputs": [
        {
          "indexed": true,
          "internalType": "address",
          "name": "previousOwner",
          "type": "address"
        },
        {
          "indexed": true,
          "internalType": "address",
          "name": "newOwner",
          "type": "address"
        }
      ],
      "name": "OwnershipTransferred",
      "type": "event"
    },
    {
      "anonymous": false,
      "inputs": [
        {
          "indexed": true,
          "internalType": "address",
          "name": "from",
          "type": "address"
        },
        {
          "indexed": true,
          "internalType": "address",
          "name": "to",
          "type": "address"
        },
        {
          "indexed": false,
          "internalType": "uint256",
          "name": "value",
          "type": "uint256"
        }
      ],
      "name": "Transfer",
      "type": "event"
    },
    {
      "inputs": [
        {
          "internalType": "address",
          "name": "owner",
          "type": "address"
        },
        {
          "internalType": "address",
          "name": "spender",
          "type": "address"
        }
      ],
      "name": "allowance",
      "outputs": [
        {
          "internalType": "uint256",
          "name": "",
          "type": "uint256"
        }
      ],
      "stateMutability": "view",
      "type": "function"
    },
    {
      "inputs": [
        {
          "internalType": "address",
          "name": "spender",
          "type": "address"
        },
        {
          "internalType": "uint256",
          "name": "value",
          "type": "uint256"
        }
      ],
      "name": "approve",
      "outputs": [
        {
          "internalType": "bool",
          "name": "",
          "type": "bool"
        }
      ],
      "stateMutability": "nonpayable",
      "type": "function"
    },
    {
      "inputs": [
        {
          "internalType": "address",
          "name": "account",
          "type": "address"
        }
      ],
      "name": "balanceOf",
      "outputs": [
        {
          "internalType": "uint256",
          "name": "",
          "type": "uint256"
        }
      ],
      "stateMutability": "view",
      "type": "function"
    },
    {
      "inputs": [
        {
          "internalType": "uint256",
          "name": "amount",
          "type": "uint256"
        }
      ],
      "name": "burn",
      "outputs": [],
      "stateMutability": "nonpayable",
      "type": "function"
    },
    {
      "inputs": [
        {
          "internalType": "address",
          "name": "account",
          "type": "address"
        },
        {
          "internalType": "uint256",
          "name": "amount",
          "type": "uint256"
        }
      ],
      "name": "burnFrom",
      "outputs": [],
      "stateMutability": "nonpayable",
      "type": "function"
    },
    {
      "inputs": [],
      "name": "buyTokens",
      "outputs": [],
      "stateMutability": "payable",
      "type": "function"
    },
    {
      "inputs": [],
      "name": "decimals",
      "outputs": [
        {
          "internalType": "uint8",
          "name": "",
          "type": "uint8"
        }
      ],
      "stateMutability": "view",
      "type": "function"
    },
    {
      "inputs": [
        {
          "internalType": "address",
          "name": "to",
          "type": "address"
        },
        {
          "internalType": "uint256",
          "name": "amount",
          "type": "uint256"
        }
      ],
      "name": "mint",
      "outputs": [],
      "stateMutability": "nonpayable",
      "type": "function"
    },
    {
      "inputs": [],
      "name": "name",
      "outputs": [
        {
          "internalType": "string",
          "name": "",
          "type": "string"
        }
      ],
      "stateMutability": "view",
      "type": "function"
    },
    {
      "inputs": [],
      "name": "owner",
      "outputs": [
        {
          "internalType": "address",
          "name": "",
          "type": "address"
        }
      ],
      "stateMutability": "view",
      "type": "function"
    },
    {
      "inputs": [],
      "name": "rate",
      "outputs": [
        {
          "internalType": "uint256",
          "name": "",
          "type": "uint256"
        }
      ],
      "stateMutability": "view",
      "type": "function"
    },
    {
      "inputs": [],
      "name": "renounceOwnership",
      "outputs": [],
      "stateMutability": "nonpayable",
      "type": "function"
    },
    {
      "inputs": [
        {
          "internalType": "uint256",
          "name": "tokenAmount",
          "type": "uint256"
        }
      ],
      "name": "sellTokens",
      "outputs": [],
      "stateMutability": "nonpayable",
      "type": "function"
    },
    {
      "inputs": [],
      "name": "symbol",
      "outputs": [
        {
          "internalType": "string",
          "name": "",
          "type": "string"
        }
      ],
      "stateMutability": "view",
      "type": "function"
    },
    {
      "inputs": [],
      "name": "totalSupply",
      "outputs": [
        {
          "internalType": "uint256",
          "name": "",
          "type": "uint256"
        }
      ],
      "stateMutability": "view",
      "type": "function"
    },
    {
      "inputs": [
        {
          "internalType": "address",
          "name": "to",
          "type": "address"
        },
        {
          "internalType": "uint256",
          "name": "value",
          "type": "uint256"
        }
      ],
      "name": "transfer",
      "outputs": [
        {
          "internalType": "bool",
          "name": "",
          "type": "bool"
        }
      ],
      "stateMutability": "nonpayable",
      "type": "function"
    },
    {
      "inputs": [
        {
          "internalType": "address",
          "name": "from",
          "type": "address"
        },
        {
          "internalType": "address",
          "name": "to",
          "type": "address"
        },
        {
          "internalType": "uint256",
          "name": "value",
          "type": "uint256"
        }
      ],
      "name": "transferFrom",
      "outputs": [
        {
          "internalType": "bool",
          "name": "",
          "type": "bool"
        }
      ],
      "stateMutability": "nonpayable",
      "type": "function"
    },
    {
      "inputs": [
        {
          "internalType": "address",
          "name": "newOwner",
          "type": "address"
        }
      ],
      "name": "transferOwnership",
      "outputs": [],
      "stateMutability": "nonpayable",
      "type": "function"
    },
    {
      "inputs": [],
      "name": "withdrawETH",
      "outputs": [],
      "stateMutability": "nonpayable",
      "type": "function"
    }
  ],
  "bytecode": "0x608060405234801561000f575f5ffd5b5033604051806040016040528060038152602001624f574360e81b815250604051806040016040528060028152602001614f5760f01b81525081600390816100579190610312565b5060046100648282610312565b5050506001600160a01b03811661009557604051631e4fbdf760e01b81525f60048201526024015b60405180910390fd5b61009e816100cb565b506113886006556100c6336100b45f600a6104c5565b6100c190620f42406104da565b61011c565b610504565b600580546001600160a01b038381166001600160a01b0319831681179093556040519116919082907f8be0079c531659141344cd1fd0a4f28419497f9722a3daafe3b4186f6b6457e0905f90a35050565b6001600160a01b0382166101455760405163ec442f0560e01b81525f600482015260240161008c565b6101505f8383610154565b5050565b6001600160a01b03831661017e578060025f82825461017391906104f1565b909155506101ee9050565b6001600160a01b0383165f90815260208190526040902054818110156101d05760405163391434e360e21b81526001600160a01b0385166004820152602481018290526044810183905260640161008c565b6001600160a01b0384165f9081526020819052604090209082900390555b6001600160a01b03821661020a57600280548290039055610228565b6001600160a01b0382165f9081526020819052604090208054820190555b816001600160a01b0316836001600160a01b03167fddf252ad1be2c89b69c2b068fc378daa952ba7f163c4a11628f55a4df523b3ef8360405161026d91815260200190565b60405180910390a3505050565b634e487b7160e01b5f52604160045260245ffd5b600181811c908216806102a257607f821691505b6020821081036102c057634e487b7160e01b5f52602260045260245ffd5b50919050565b601f82111561030d57805f5260205f20601f840160051c810160208510156102eb5750805b601f840160051c820191505b8181101561030a575f81556001016102f7565b50505b505050565b81516001600160401b0381111561032b5761032b61027a565b61033f81610339845461028e565b846102c6565b6020601f821160018114610371575f831561035a5750848201515b5f19600385901b1c1916600184901b17845561030a565b5f84815260208120601f198516915b828110156103a05787850151825560209485019460019092019101610380565b50848210156103bd57868401515f19600387901b60f8161c191681555b50505050600190811b01905550565b634e487b7160e01b5f52601160045260245ffd5b6001815b600184111561041b578085048111156103ff576103ff6103cc565b600184161561040d57908102905b60019390931c9280026103e4565b935093915050565b5f82610431575060016104bf565b8161043d57505f6104bf565b8160018114610453576002811461045d57610479565b60019150506104bf565b60ff84111561046e5761046e6103cc565b50506001821b6104bf565b5060208310610133831016604e8410600b841016171561049c575081810a6104bf565b6104a85f1984846103e0565b805f19048211156104bb576104bb6103cc565b0290505b92915050565b5f6104d360ff841683610423565b9392505050565b80820281158282048414176104bf576104bf6103cc565b808201808211156104bf576104bf6103cc565b610d19806105115f395ff3fe608060405260043610610110575f3560e01c806370a082311161009d578063a9059cbb11610062578063a9059cbb146102da578063d0febe4c146102f9578063dd62ed3e14610301578063e086e5ec14610345578063f2fde38b14610359575f5ffd5b806370a0823114610238578063715018a61461026c57806379cc6790146102805780638da5cb5b1461029f57806395d89b41146102c6575f5ffd5b80632c4e722e116100e35780632c4e722e146101aa578063313ce567146101bf57806340c10f19146101d957806342966c68146101fa5780636c11bcd314610219575f5ffd5b806306fdde0314610114578063095ea7b31461013e57806318160ddd1461016d57806323b872dd1461018b575b5f5ffd5b34801561011f575f5ffd5b50610128610378565b6040516101359190610b34565b60405180910390f35b348015610149575f5ffd5b5061015d610158366004610b84565b610408565b6040519015158152602001610135565b348015610178575f5ffd5b506002545b604051908152602001610135565b348015610196575f5ffd5b5061015d6101a5366004610bac565b610421565b3480156101b5575f5ffd5b5061017d60065481565b3480156101ca575f5ffd5b506040515f8152602001610135565b3480156101e4575f5ffd5b506101f86101f3366004610b84565b610444565b005b348015610205575f5ffd5b506101f8610214366004610be6565b61045a565b348015610224575f5ffd5b506101f8610233366004610be6565b610467565b348015610243575f5ffd5b5061017d610252366004610bfd565b6001600160a01b03165f9081526020819052604090205490565b348015610277575f5ffd5b506101f8610590565b34801561028b575f5ffd5b506101f861029a366004610b84565b6105a3565b3480156102aa575f5ffd5b506005546040516001600160a01b039091168152602001610135565b3480156102d1575f5ffd5b506101286105b8565b3480156102e5575f5ffd5b5061015d6102f4366004610b84565b6105c7565b6101f86105d4565b34801561030c575f5ffd5b5061017d61031b366004610c1d565b6001600160a01b039182165f90815260016020908152604080832093909416825291909152205490565b348015610350575f5ffd5b506101f86106b4565b348015610364575f5ffd5b506101f8610373366004610bfd565b610736565b60606003805461038790610c4e565b80601f01602080910402602001604051908101604052809291908181526020018280546103b390610c4e565b80156103fe5780601f106103d5576101008083540402835291602001916103fe565b820191905f5260205f20905b8154815290600101906020018083116103e157829003601f168201915b5050505050905090565b5f33610415818585610770565b60019150505b92915050565b5f3361042e85828561077d565b6104398585856107f9565b506001949350505050565b61044c610856565b6104568282610883565b5050565b61046433826108b7565b50565b5f81116104b25760405162461bcd60e51b815260206004820152601460248201527314dc1958da599e481d1bdad95b88185b5bdd5b9d60621b60448201526064015b60405180910390fd5b335f908152602081905260409020548111156105045760405162461bcd60e51b81526020600482015260116024820152704e6f7420656e6f75676820746f6b656e7360781b60448201526064016104a9565b5f600654826105139190610c9a565b9050804710156105565760405162461bcd60e51b815260206004820152600e60248201526d09cdee840cadcdeeaced0408aa8960931b60448201526064016104a9565b6105613330846107f9565b604051339082156108fc029083905f818181858888f1935050505015801561058b573d5f5f3e3d5ffd5b505050565b610598610856565b6105a15f6108eb565b565b6105ae82338361077d565b61045682826108b7565b60606004805461038790610c4e565b5f336104158185856107f9565b5f341161061c5760405162461bcd60e51b815260206004820152601660248201527553656e642045544820746f2062757920746f6b656e7360501b60448201526064016104a9565b5f670de0b6b3a7640000600654346106349190610cb9565b61063e9190610c9a565b9050806106566102526005546001600160a01b031690565b10156106985760405162461bcd60e51b81526020600482015260116024820152704e6f7420656e6f75676820746f6b656e7360781b60448201526064016104a9565b6104646106ad6005546001600160a01b031690565b33836107f9565b6106bc610856565b47806106ff5760405162461bcd60e51b81526020600482015260126024820152714e6f2045544820746f20776974686472617760701b60448201526064016104a9565b6005546040516001600160a01b039091169082156108fc029083905f818181858888f19350505050158015610456573d5f5f3e3d5ffd5b61073e610856565b6001600160a01b03811661076757604051631e4fbdf760e01b81525f60048201526024016104a9565b610464816108eb565b61058b838383600161093c565b6001600160a01b038381165f908152600160209081526040808320938616835292905220545f198110156107f357818110156107e557604051637dc7a0d960e11b81526001600160a01b038416600482015260248101829052604481018390526064016104a9565b6107f384848484035f61093c565b50505050565b6001600160a01b03831661082257604051634b637e8f60e11b81525f60048201526024016104a9565b6001600160a01b03821661084b5760405163ec442f0560e01b81525f60048201526024016104a9565b61058b838383610a0e565b6005546001600160a01b031633146105a15760405163118cdaa760e01b81523360048201526024016104a9565b6001600160a01b0382166108ac5760405163ec442f0560e01b81525f60048201526024016104a9565b6104565f8383610a0e565b6001600160a01b0382166108e057604051634b637e8f60e11b81525f60048201526024016104a9565b610456825f83610a0e565b600580546001600160a01b038381166001600160a01b0319831681179093556040519116919082907f8be0079c531659141344cd1fd0a4f28419497f9722a3daafe3b4186f6b6457e0905f90a35050565b6001600160a01b0384166109655760405163e602df0560e01b81525f60048201526024016104a9565b6001600160a01b03831661098e57604051634a1406b160e11b81525f60048201526024016104a9565b6001600160a01b038085165f90815260016020908152604080832093871683529290522082905580156107f357826001600160a01b0316846001600160a01b03167f8c5be1e5ebec7d5bd14f71427d1e84f3dd0314c0f7b2291e5b200ac8c7c3b92584604051610a0091815260200190565b60405180910390a350505050565b6001600160a01b038316610a38578060025f828254610a2d9190610cd0565b90915550610aa89050565b6001600160a01b0383165f9081526020819052604090205481811015610a8a5760405163391434e360e21b81526001600160a01b038516600482015260248101829052604481018390526064016104a9565b6001600160a01b0384165f9081526020819052604090209082900390555b6001600160a01b038216610ac457600280548290039055610ae2565b6001600160a01b0382165f9081526020819052604090208054820190555b816001600160a01b0316836001600160a01b03167fddf252ad1be2c89b69c2b068fc378daa952ba7f163c4a11628f55a4df523b3ef83604051610b2791815260200190565b60405180910390a3505050565b602081525f82518060208401528060208501604085015e5f604082850101526040601f19601f83011684010191505092915050565b80356001600160a01b0381168114610b7f575f5ffd5b919050565b5f5f60408385031215610b95575f5ffd5b610b9e83610b69565b946020939093013593505050565b5f5f5f60608486031215610bbe575f5ffd5b610bc784610b69565b9250610bd560208501610b69565b929592945050506040919091013590565b5f60208284031215610bf6575f5ffd5b5035919050565b5f60208284031215610c0d575f5ffd5b610c1682610b69565b9392505050565b5f5f60408385031215610c2e575f5ffd5b610c3783610b69565b9150610c4560208401610b69565b90509250929050565b600181811c90821680610c6257607f821691505b602082108103610c8057634e487b7160e01b5f52602260045260245ffd5b50919050565b634e487b7160e01b5f52601160045260245ffd5b5f82610cb457634e487b7160e01b5f52601260045260245ffd5b500490565b808202811582820484141761041b5761041b610c86565b8082018082111561041b5761041b610c8656fea264697066735822122079a89daeedba151ef0312114a8335e9ab8901f046385500f62318c5e827f8eb664736f6c634300081c0033",
  "linkReferences": {},
  "deployedLinkReferences": {},
  "immutableReferences": {},
  "inputSourceName": "project/contracts/OWCToken.sol",
  "buildInfoId": "solc-0_8_28-1e5945db35095962ab37a315eda5e5eb041461e8"
}