{
  "contractName": "CourseRegistry",
  "abi": [
    {
      "inputs": [
        {
          "internalType": "address",
          "name": "_owcTokenAddress",
          "type": "address"
        }
      ],
      "stateMutability": "nonpayable",
      "type": "constructor"
    },
    {
      "anonymous": false,
      "inputs": [
        {
          "indexed": false,
          "internalType": "string",
          "name": "courseName",
          "type": "string"
        },
        {
          "indexed": true,
          "internalType": "address",
          "name": "creator",
          "type": "address"
        },
        {
          "indexed": false,
          "internalType": "uint256",
          "name": "price",
          "type": "uint256"
        }
      ],
      "name": "CourseCreated",
      "type": "event"
    },
    {
      "anonymous": false,
      "inputs": [
        {
          "indexed": false,
          "internalType": "string",
          "name": "courseName",
          "type": "string"
        },
        {
          "indexed": true,
          "internalType": "address",
          "name": "student",
          "type": "address"
        },
        {
          "indexed": false,
          "internalType": "uint256",
          "name": "price",
          "type": "uint256"
        }
      ],
      "name": "CoursePurchased",
      "type": "event"
    },
    {
      "inputs": [
        {
          "internalType": "string",
          "name": "",
          "type": "string"
        }
      ],
      "name": "courses",
      "outputs": [
        {
          "internalType": "uint256",
          "name": "price",
          "type": "uint256"
        }
      ],
      "stateMutability": "view",
      "type": "function",
      "constant": true
    },
    {
      "inputs": [],
      "name": "owcToken",
      "outputs": [
        {
          "internalType": "contract IERC20",
          "name": "",
          "type": "address"
        }
      ],
      "stateMutability": "view",
      "type": "function",
      "constant": true
    },
    {
      "inputs": [
        {
          "internalType": "string",
          "name": "courseName",
          "type": "string"
        },
        {
          "internalType": "uint256",
          "name": "price",
          "type": "uint256"
        }
      ],
      "name": "createCourse",
      "outputs": [],
      "stateMutability": "nonpayable",
      "type": "function"
    },
    {
      "inputs": [
        {
          "internalType": "string",
          "name": "courseName",
          "type": "string"
        }
      ],
      "name": "purchaseCourse",
      "outputs": [],
      "stateMutability": "nonpayable",
      "type": "function"
    },
    {
      "inputs": [
        {
          "internalType": "string",
          "name": "courseName",
          "type": "string"
        }
      ],
      "name": "getCourseStudents",
      "outputs": [
        {
          "internalType": "address[]",
          "name": "",
          "type": "address[]"
        }
      ],
      "stateMutability": "view",
      "type": "function",
      "constant": true
    },
    {
      "inputs": [
        {
          "internalType": "string",
          "name": "courseName",
          "type": "string"
        },
        {
          "internalType": "address",
          "name": "student",
          "type": "address"
        }
      ],
      "name": "hasPurchased",
      "outputs": [
        {
          "internalType": "bool",
          "name": "",
          "type": "bool"
        }
      ],
      "stateMutability": "view",
      "type": "function",
      "constant": true
    }
  ],
  "bytecode": "0x60806040523480156200001157600080fd5b50604051620011d0380380620011d08339818101604052810190620000379190620000e8565b806000806101000a81548173ffffffffffffffffffffffffffffffffffffffff021916908373ffffffffffffffffffffffffffffffffffffffff160217905550506200011a565b600080fd5b600073ffffffffffffffffffffffffffffffffffffffff82169050919050565b6000620000b08262000083565b9050919050565b620000c281620000a3565b8114620000ce57600080fd5b50565b600081519050620000e281620000b7565b92915050565b6000602082840312156200010157620001006200007e565b5b60006200011184828501620000d1565b91505092915050565b6110a6806200012a6000396000f3fe608060405234801561001057600080fd5b506004361061007f576000357c0100000000000000000000000000000000000000000000000000000000900480632dc6a5b8146100845780634fba1577146100b45780635d1c6dce146100e457806367589b6f146101145780639855389814610130578063a1db0e271461014e575b600080fd5b61009e60048036038101906100999190610997565b61016a565b6040516100ab9190610a0e565b60405180910390f35b6100ce60048036038101906100c99190610a29565b610299565b6040516100db9190610b30565b60405180910390f35b6100fe60048036038101906100f99190610a29565b610348565b60405161010b9190610b6b565b60405180910390f35b61012e60048036038101906101299190610a29565b61037c565b005b610138610618565b6040516101459190610be5565b60405180910390f35b61016860048036038101906101639190610c2c565b61063c565b005b60008060018460405161017d9190610cf9565b908152602001604051809103902060010180548060200260200160405190810160405280929190818152602001828054801561020e57602002820191906000526020600020905b8160009054906101000a900473ffffffffffffffffffffffffffffffffffffffff1673ffffffffffffffffffffffffffffffffffffffff16815260200190600101908083116101c4575b5050505050905060005b815181101561028c578373ffffffffffffffffffffffffffffffffffffffff1682828151811061024b5761024a610d10565b5b602002602001015173ffffffffffffffffffffffffffffffffffffffff160361027957600192505050610293565b808061028490610d6e565b915050610218565b5060009150505b92915050565b60606001826040516102ab9190610cf9565b908152602001604051809103902060010180548060200260200160405190810160405280929190818152602001828054801561033c57602002820191906000526020600020905b8160009054906101000a900473ffffffffffffffffffffffffffffffffffffffff1673ffffffffffffffffffffffffffffffffffffffff16815260200190600101908083116102f2575b50505050509050919050565b6001818051602081018201805184825260208301602085012081835280955050505050506000915090508060000154905081565b600060018260405161038e9190610cf9565b90815260200160405180910390209050806000015460008054906101000a900473ffffffffffffffffffffffffffffffffffffffff1673ffffffffffffffffffffffffffffffffffffffff166370a08231336040518263ffffffff167c01000000000000000000000000000000000000000000000000000000000281526004016104189190610dc5565b602060405180830381865afa158015610435573d6000803e3d6000fd5b505050506040513d601f19601f820116820180604052508101906104599190610df5565b101561049a576040517f08c379a000000000000000000000000000000000000000000000000000000000815260040161049190610e7f565b60405180910390fd5b60008054906101000a900473ffffffffffffffffffffffffffffffffffffffff1673ffffffffffffffffffffffffffffffffffffffff166323b872dd333084600001546040518463ffffffff167c010000000000000000000000000000000000000000000000000000000002815260040161051793929190610e9f565b6020604051808303816000875af1158015610536573d6000803e3d6000fd5b505050506040513d601f19601f8201168201806040525081019061055a9190610f02565b5080600101339080600181540180825580915050600190039060005260206000200160009091909190916101000a81548173ffffffffffffffffffffffffffffffffffffffff021916908373ffffffffffffffffffffffffffffffffffffffff1602179055503373ffffffffffffffffffffffffffffffffffffffff167f716e6395af1503b6908e71b25e3456736b92afb151fd68f910dac3558c2a394d83836000015460405161060c929190610f68565b60405180910390a25050565b60008054906101000a900473ffffffffffffffffffffffffffffffffffffffff1681565b6000811161067f576040517f08c379a000000000000000000000000000000000000000000000000000000000815260040161067690610fe4565b60405180910390fd5b60006001836040516106919190610cf9565b908152602001604051809103902060000154146106e3576040517f08c379a00000000000000000000000000000000000000000000000000000000081526004016106da90611050565b60405180910390fd5b806001836040516106f49190610cf9565b9081526020016040518091039020600001819055506001826040516107199190610cf9565b9081526020016040518091039020600101339080600181540180825580915050600190039060005260206000200160009091909190916101000a81548173ffffffffffffffffffffffffffffffffffffffff021916908373ffffffffffffffffffffffffffffffffffffffff1602179055503373ffffffffffffffffffffffffffffffffffffffff167f046f45bcceb06d1fd12aab61a8f4280d1ad879cc6c452a315b3dcc8108f2d10783836040516107d3929190610f68565b60405180910390a25050565b6000604051905090565b600080fd5b600080fd5b600080fd5b600080fd5b6000601f19601f8301169050919050565b7f4e487b7100000000000000000000000000000000000000000000000000000000600052604160045260246000fd5b610846826107fd565b810181811067ffffffffffffffff821117156108655761086461080e565b5b80604052505050565b60006108786107df565b9050610884828261083d565b919050565b600067ffffffffffffffff8211156108a4576108a361080e565b5b6108ad826107fd565b9050602081019050919050565b82818337600083830152505050565b60006108dc6108d784610889565b61086e565b9050828152602081018484840111156108f8576108f76107f8565b5b6109038482856108ba565b509392505050565b600082601f8301126109205761091f6107f3565b5b81356109308482602086016108c9565b91505092915050565b600073ffffffffffffffffffffffffffffffffffffffff82169050919050565b600061096482610939565b9050919050565b61097481610959565b811461097f57600080fd5b50565b6000813590506109918161096b565b92915050565b600080604083850312156109ae576109ad6107e9565b5b600083013567ffffffffffffffff8111156109cc576109cb6107ee565b5b6109d88582860161090b565b92505060206109e985828601610982565b9150509250929050565b60008115159050919050565b610a08816109f3565b82525050565b6000602082019050610a2360008301846109ff565b92915050565b600060208284031215610a3f57610a3e6107e9565b5b600082013567ffffffffffffffff811115610a5d57610a5c6107ee565b5b610a698482850161090b565b91505092915050565b600081519050919050565b600082825260208201905092915050565b6000819050602082019050919050565b610aa781610959565b82525050565b6000610ab98383610a9e565b60208301905092915050565b6000602082019050919050565b6000610add82610a72565b610ae78185610a7d565b9350610af283610a8e565b8060005b83811015610b23578151610b0a8882610aad565b9750610b1583610ac5565b925050600181019050610af6565b5085935050505092915050565b60006020820190508181036000830152610b4a8184610ad2565b905092915050565b6000819050919050565b610b6581610b52565b82525050565b6000602082019050610b806000830184610b5c565b92915050565b6000819050919050565b6000610bab610ba6610ba184610939565b610b86565b610939565b9050919050565b6000610bbd82610b90565b9050919050565b6000610bcf82610bb2565b9050919050565b610bdf81610bc4565b82525050565b6000602082019050610bfa6000830184610bd6565b92915050565b610c0981610b52565b8114610c1457600080fd5b50565b600081359050610c2681610c00565b92915050565b60008060408385031215610c4357610c426107e9565b5b600083013567ffffffffffffffff811115610c6157610c606107ee565b5b610c6d8582860161090b565b9250506020610c7e85828601610c17565b9150509250929050565b600081519050919050565b600081905092915050565b60005b83811015610cbc578082015181840152602081019050610ca1565b60008484015250505050565b6000610cd382610c88565b610cdd8185610c93565b9350610ced818560208601610c9e565b80840191505092915050565b6000610d058284610cc8565b915081905092915050565b7f4e487b7100000000000000000000000000000000000000000000000000000000600052603260045260246000fd5b7f4e487b7100000000000000000000000000000000000000000000000000000000600052601160045260246000fd5b6000610d7982610b52565b91507fffffffffffffffffffffffffffffffffffffffffffffffffffffffffffffffff8203610dab57610daa610d3f565b5b600182019050919050565b610dbf81610959565b82525050565b6000602082019050610dda6000830184610db6565b92915050565b600081519050610def81610c00565b92915050565b600060208284031215610e0b57610e0a6107e9565b5b6000610e1984828501610de0565b91505092915050565b600082825260208201905092915050565b7f496e73756666696369656e74204f57432062616c616e63650000000000000000600082015250565b6000610e69601883610e22565b9150610e7482610e33565b602082019050919050565b60006020820190508181036000830152610e9881610e5c565b9050919050565b6000606082019050610eb46000830186610db6565b610ec16020830185610db6565b610ece6040830184610b5c565b949350505050565b610edf816109f3565b8114610eea57600080fd5b50565b600081519050610efc81610ed6565b92915050565b600060208284031215610f1857610f176107e9565b5b6000610f2684828501610eed565b91505092915050565b6000610f3a82610c88565b610f448185610e22565b9350610f54818560208601610c9e565b610f5d816107fd565b840191505092915050565b60006040820190508181036000830152610f828185610f2f565b9050610f916020830184610b5c565b9392505050565b7f5072696365206d7573742062652067726561746572207468616e203000000000600082015250565b6000610fce601c83610e22565b9150610fd982610f98565b602082019050919050565b60006020820190508181036000830152610ffd81610fc1565b9050919050565b7f436f7572736520616c7265616479206578697374730000000000000000000000600082015250565b600061103a601583610e22565b915061104582611004565b602082019050919050565b600060208201905081810360008301526110698161102d565b905091905056fea26469706673582212205f1ea5213364bf19a5aaf5455582ac189e66f561a5c596f2bf9e76f1794bb01f64736f6c63430008150033",
  "immutableReferences": {},
  "source": "// SPDX-License-Identifier: MIT\npragma solidity ^0.8.0;\n\nimport \"@openzeppelin/contracts/token/ERC20/IERC20.sol\";\n\ncontract CourseRegistry {\n    struct Course {\n        uint256 price;\n        address[] students;\n    }\n\n    IERC20 public owcToken;\n    mapping(string => Course) public courses;\n\n    event CoursePurchased(string courseName, address indexed student, uint256 price);\n    event CourseCreated(string courseName, address indexed creator, uint256 price);\n\n    constructor(address _owcTokenAddress) {\n        owcToken = IERC20(_owcTokenAddress);\n    }\n\n    function createCourse(string memory courseName, uint256 price) external {\n        require(price > 0, \"Price must be greater than 0\");\n        require(courses[courseName].price == 0, \"Course already exists\");\n\n        courses[courseName].price = price;\n        courses[courseName].students.push(msg.sender);\n\n        emit CourseCreated(courseName, msg.sender, price);\n    }\n\n    function purchaseCourse(string memory courseName) external {\n        Course storage course = courses[courseName];\n        require(owcToken.balanceOf(msg.sender) >= course.price, \"Insufficient OWC balance\");\n\n        owcToken.transferFrom(msg.sender, address(this), course.price);\n        course.students.push(msg.sender);\n        emit CoursePurchased(courseName, msg.sender, course.price);\n    }\n\n    function getCourseStudents(string memory courseName) external view returns (address[] memory) {\n        return courses[courseName].students;\n    }\n\n    function hasPurchased(string memory courseName, address student) external view returns (bool) {\n        address[] memory students = courses[courseName].students;\n        for (uint i = 0; i < students.length; i++) {\n            if (students[i] == student) {\n                return true;\n            }\n        }\n        return false;\n    }\n}",
  "sourcePath": "/Users/firebushtree/Desktop/code/yideng/web3-college/contract/contracts/CourseRegistry.sol",
  "compiler": {
    "name": "solc",
    "version": "0.8.21+commit.d9974bed.Emscripten.clang"
  },
  "schemaVersion": "3.4.16",
  "updatedAt": "2025-09-01T14:35:36.840Z",
  "networkType": "ethereum",
  "devdoc": {
    "kind": "dev",
    "methods": {},
    "version": 1
  },
  "userdoc": {
    "kind": "user",
    "methods": {},
    "version": 1
  }
}