{
  "contractName": "CourseRegistry",
  "abi": [
    {
      "inputs": [
        {
          "internalType": "address",
          "name": "_owcTokenAddress",
          "type": "address"
        }
      ],
      "stateMutability": "nonpayable",
      "type": "constructor"
    },
    {
      "anonymous": false,
      "inputs": [
        {
          "indexed": false,
          "internalType": "string",
          "name": "courseName",
          "type": "string"
        },
        {
          "indexed": true,
          "internalType": "address",
          "name": "creator",
          "type": "address"
        },
        {
          "indexed": false,
          "internalType": "uint256",
          "name": "price",
          "type": "uint256"
        }
      ],
      "name": "CourseCreated",
      "type": "event"
    },
    {
      "anonymous": false,
      "inputs": [
        {
          "indexed": false,
          "internalType": "string",
          "name": "courseName",
          "type": "string"
        },
        {
          "indexed": true,
          "internalType": "address",
          "name": "student",
          "type": "address"
        },
        {
          "indexed": false,
          "internalType": "uint256",
          "name": "price",
          "type": "uint256"
        }
      ],
      "name": "CoursePurchased",
      "type": "event"
    },
    {
      "inputs": [
        {
          "internalType": "string",
          "name": "",
          "type": "string"
        }
      ],
      "name": "courses",
      "outputs": [
        {
          "internalType": "uint256",
          "name": "price",
          "type": "uint256"
        },
        {
          "internalType": "address",
          "name": "creator",
          "type": "address"
        }
      ],
      "stateMutability": "view",
      "type": "function",
      "constant": true
    },
    {
      "inputs": [],
      "name": "owcToken",
      "outputs": [
        {
          "internalType": "contract IERC20",
          "name": "",
          "type": "address"
        }
      ],
      "stateMutability": "view",
      "type": "function",
      "constant": true
    },
    {
      "inputs": [
        {
          "internalType": "string",
          "name": "courseName",
          "type": "string"
        },
        {
          "internalType": "uint256",
          "name": "price",
          "type": "uint256"
        }
      ],
      "name": "createCourse",
      "outputs": [],
      "stateMutability": "nonpayable",
      "type": "function"
    },
    {
      "inputs": [
        {
          "internalType": "string",
          "name": "courseName",
          "type": "string"
        }
      ],
      "name": "purchaseCourse",
      "outputs": [],
      "stateMutability": "nonpayable",
      "type": "function"
    },
    {
      "inputs": [
        {
          "internalType": "string",
          "name": "courseName",
          "type": "string"
        }
      ],
      "name": "getCourseStudents",
      "outputs": [
        {
          "internalType": "address[]",
          "name": "",
          "type": "address[]"
        }
      ],
      "stateMutability": "view",
      "type": "function",
      "constant": true
    },
    {
      "inputs": [
        {
          "internalType": "string",
          "name": "courseName",
          "type": "string"
        },
        {
          "internalType": "address",
          "name": "student",
          "type": "address"
        }
      ],
      "name": "hasPurchased",
      "outputs": [
        {
          "internalType": "bool",
          "name": "",
          "type": "bool"
        }
      ],
      "stateMutability": "view",
      "type": "function",
      "constant": true
    },
    {
      "inputs": [
        {
          "internalType": "string",
          "name": "courseName",
          "type": "string"
        }
      ],
      "name": "getCoursePrice",
      "outputs": [
        {
          "internalType": "uint256",
          "name": "",
          "type": "uint256"
        }
      ],
      "stateMutability": "view",
      "type": "function",
      "constant": true
    },
    {
      "inputs": [
        {
          "internalType": "string",
          "name": "courseName",
          "type": "string"
        }
      ],
      "name": "getCourseCreator",
      "outputs": [
        {
          "internalType": "address",
          "name": "",
          "type": "address"
        }
      ],
      "stateMutability": "view",
      "type": "function",
      "constant": true
    }
  ],
  "bytecode": "0x60806040523480156200001157600080fd5b5060405162001697380380620016978339818101604052810190620000379190620000e8565b806000806101000a81548173ffffffffffffffffffffffffffffffffffffffff021916908373ffffffffffffffffffffffffffffffffffffffff160217905550506200011a565b600080fd5b600073ffffffffffffffffffffffffffffffffffffffff82169050919050565b6000620000b08262000083565b9050919050565b620000c281620000a3565b8114620000ce57600080fd5b50565b600081519050620000e281620000b7565b92915050565b6000602082840312156200010157620001006200007e565b5b60006200011184828501620000d1565b91505092915050565b61156d806200012a6000396000f3fe608060405234801561001057600080fd5b50600436106100a5576000357c01000000000000000000000000000000000000000000000000000000009004806367589b6f1161007857806367589b6f1461016b5780639855389814610187578063a1db0e27146101a5578063e1f702be146101c1576100a5565b8063265f5850146100aa5780632dc6a5b8146100da5780634fba15771461010a5780635d1c6dce1461013a575b600080fd5b6100c460048036038101906100bf9190610c6a565b6101f1565b6040516100d19190610ccc565b60405180910390f35b6100f460048036038101906100ef9190610d45565b61021c565b6040516101019190610dbc565b60405180910390f35b610124600480360381019061011f9190610c6a565b61034b565b6040516101319190610e95565b60405180910390f35b610154600480360381019061014f9190610c6a565b6103fa565b604051610162929190610ec6565b60405180910390f35b61018560048036038101906101809190610c6a565b610454565b005b61018f61089e565b60405161019c9190610f4e565b60405180910390f35b6101bf60048036038101906101ba9190610f95565b6108c2565b005b6101db60048036038101906101d69190610c6a565b610ac5565b6040516101e89190610ff1565b60405180910390f35b6000600182604051610203919061107d565b9081526020016040518091039020600001549050919050565b60008060018460405161022f919061107d565b90815260200160405180910390206002018054806020026020016040519081016040528092919081815260200182805480156102c057602002820191906000526020600020905b8160009054906101000a900473ffffffffffffffffffffffffffffffffffffffff1673ffffffffffffffffffffffffffffffffffffffff1681526020019060010190808311610276575b5050505050905060005b815181101561033e578373ffffffffffffffffffffffffffffffffffffffff168282815181106102fd576102fc611094565b5b602002602001015173ffffffffffffffffffffffffffffffffffffffff160361032b57600192505050610345565b8080610336906110f2565b9150506102ca565b5060009150505b92915050565b606060018260405161035d919061107d565b90815260200160405180910390206002018054806020026020016040519081016040528092919081815260200182805480156103ee57602002820191906000526020600020905b8160009054906101000a900473ffffffffffffffffffffffffffffffffffffffff1673ffffffffffffffffffffffffffffffffffffffff16815260200190600101908083116103a4575b50505050509050919050565b6001818051602081018201805184825260208301602085012081835280955050505050506000915090508060000154908060010160009054906101000a900473ffffffffffffffffffffffffffffffffffffffff16905082565b6000600182604051610466919061107d565b9081526020016040518091039020905060008160000154116104bd576040517f08c379a00000000000000000000000000000000000000000000000000000000081526004016104b490611197565b60405180910390fd5b806000015460008054906101000a900473ffffffffffffffffffffffffffffffffffffffff1673ffffffffffffffffffffffffffffffffffffffff166370a08231336040518263ffffffff167c01000000000000000000000000000000000000000000000000000000000281526004016105379190610ff1565b602060405180830381865afa158015610554573d6000803e3d6000fd5b505050506040513d601f19601f8201168201806040525081019061057891906111cc565b10156105b9576040517f08c379a00000000000000000000000000000000000000000000000000000000081526004016105b090611245565b60405180910390fd5b806000015460008054906101000a900473ffffffffffffffffffffffffffffffffffffffff1673ffffffffffffffffffffffffffffffffffffffff1663dd62ed3e33306040518363ffffffff167c0100000000000000000000000000000000000000000000000000000000028152600401610635929190611265565b602060405180830381865afa158015610652573d6000803e3d6000fd5b505050506040513d601f19601f8201168201806040525081019061067691906111cc565b10156106b7576040517f08c379a00000000000000000000000000000000000000000000000000000000081526004016106ae906112da565b60405180910390fd5b60008060009054906101000a900473ffffffffffffffffffffffffffffffffffffffff1673ffffffffffffffffffffffffffffffffffffffff166323b872dd338460010160009054906101000a900473ffffffffffffffffffffffffffffffffffffffff1685600001546040518463ffffffff167c010000000000000000000000000000000000000000000000000000000002815260040161075b939291906112fa565b6020604051808303816000875af115801561077a573d6000803e3d6000fd5b505050506040513d601f19601f8201168201806040525081019061079e919061135d565b9050806107e0576040517f08c379a00000000000000000000000000000000000000000000000000000000081526004016107d7906113d6565b60405180910390fd5b81600201339080600181540180825580915050600190039060005260206000200160009091909190916101000a81548173ffffffffffffffffffffffffffffffffffffffff021916908373ffffffffffffffffffffffffffffffffffffffff1602179055503373ffffffffffffffffffffffffffffffffffffffff167f716e6395af1503b6908e71b25e3456736b92afb151fd68f910dac3558c2a394d84846000015460405161089192919061142f565b60405180910390a2505050565b60008054906101000a900473ffffffffffffffffffffffffffffffffffffffff1681565b60008111610905576040517f08c379a00000000000000000000000000000000000000000000000000000000081526004016108fc906114ab565b60405180910390fd5b6000600183604051610917919061107d565b90815260200160405180910390206000015414610969576040517f08c379a000000000000000000000000000000000000000000000000000000000815260040161096090611517565b60405180910390fd5b8060018360405161097a919061107d565b908152602001604051809103902060000181905550336001836040516109a0919061107d565b908152602001604051809103902060010160006101000a81548173ffffffffffffffffffffffffffffffffffffffff021916908373ffffffffffffffffffffffffffffffffffffffff1602179055506001826040516109ff919061107d565b9081526020016040518091039020600201339080600181540180825580915050600190039060005260206000200160009091909190916101000a81548173ffffffffffffffffffffffffffffffffffffffff021916908373ffffffffffffffffffffffffffffffffffffffff1602179055503373ffffffffffffffffffffffffffffffffffffffff167f046f45bcceb06d1fd12aab61a8f4280d1ad879cc6c452a315b3dcc8108f2d1078383604051610ab992919061142f565b60405180910390a25050565b6000600182604051610ad7919061107d565b908152602001604051809103902060010160009054906101000a900473ffffffffffffffffffffffffffffffffffffffff169050919050565b6000604051905090565b600080fd5b600080fd5b600080fd5b600080fd5b6000601f19601f8301169050919050565b7f4e487b7100000000000000000000000000000000000000000000000000000000600052604160045260246000fd5b610b7782610b2e565b810181811067ffffffffffffffff82111715610b9657610b95610b3f565b5b80604052505050565b6000610ba9610b10565b9050610bb58282610b6e565b919050565b600067ffffffffffffffff821115610bd557610bd4610b3f565b5b610bde82610b2e565b9050602081019050919050565b82818337600083830152505050565b6000610c0d610c0884610bba565b610b9f565b905082815260208101848484011115610c2957610c28610b29565b5b610c34848285610beb565b509392505050565b600082601f830112610c5157610c50610b24565b5b8135610c61848260208601610bfa565b91505092915050565b600060208284031215610c8057610c7f610b1a565b5b600082013567ffffffffffffffff811115610c9e57610c9d610b1f565b5b610caa84828501610c3c565b91505092915050565b6000819050919050565b610cc681610cb3565b82525050565b6000602082019050610ce16000830184610cbd565b92915050565b600073ffffffffffffffffffffffffffffffffffffffff82169050919050565b6000610d1282610ce7565b9050919050565b610d2281610d07565b8114610d2d57600080fd5b50565b600081359050610d3f81610d19565b92915050565b60008060408385031215610d5c57610d5b610b1a565b5b600083013567ffffffffffffffff811115610d7a57610d79610b1f565b5b610d8685828601610c3c565b9250506020610d9785828601610d30565b9150509250929050565b60008115159050919050565b610db681610da1565b82525050565b6000602082019050610dd16000830184610dad565b92915050565b600081519050919050565b600082825260208201905092915050565b6000819050602082019050919050565b610e0c81610d07565b82525050565b6000610e1e8383610e03565b60208301905092915050565b6000602082019050919050565b6000610e4282610dd7565b610e4c8185610de2565b9350610e5783610df3565b8060005b83811015610e88578151610e6f8882610e12565b9750610e7a83610e2a565b925050600181019050610e5b565b5085935050505092915050565b60006020820190508181036000830152610eaf8184610e37565b905092915050565b610ec081610d07565b82525050565b6000604082019050610edb6000830185610cbd565b610ee86020830184610eb7565b9392505050565b6000819050919050565b6000610f14610f0f610f0a84610ce7565b610eef565b610ce7565b9050919050565b6000610f2682610ef9565b9050919050565b6000610f3882610f1b565b9050919050565b610f4881610f2d565b82525050565b6000602082019050610f636000830184610f3f565b92915050565b610f7281610cb3565b8114610f7d57600080fd5b50565b600081359050610f8f81610f69565b92915050565b60008060408385031215610fac57610fab610b1a565b5b600083013567ffffffffffffffff811115610fca57610fc9610b1f565b5b610fd685828601610c3c565b9250506020610fe785828601610f80565b9150509250929050565b60006020820190506110066000830184610eb7565b92915050565b600081519050919050565b600081905092915050565b60005b83811015611040578082015181840152602081019050611025565b60008484015250505050565b60006110578261100c565b6110618185611017565b9350611071818560208601611022565b80840191505092915050565b6000611089828461104c565b915081905092915050565b7f4e487b7100000000000000000000000000000000000000000000000000000000600052603260045260246000fd5b7f4e487b7100000000000000000000000000000000000000000000000000000000600052601160045260246000fd5b60006110fd82610cb3565b91507fffffffffffffffffffffffffffffffffffffffffffffffffffffffffffffffff820361112f5761112e6110c3565b5b600182019050919050565b600082825260208201905092915050565b7f436f7572736520646f6573206e6f742065786973740000000000000000000000600082015250565b600061118160158361113a565b915061118c8261114b565b602082019050919050565b600060208201905081810360008301526111b081611174565b9050919050565b6000815190506111c681610f69565b92915050565b6000602082840312156111e2576111e1610b1a565b5b60006111f0848285016111b7565b91505092915050565b7f496e73756666696369656e74204f57432062616c616e63650000000000000000600082015250565b600061122f60188361113a565b915061123a826111f9565b602082019050919050565b6000602082019050818103600083015261125e81611222565b9050919050565b600060408201905061127a6000830185610eb7565b6112876020830184610eb7565b9392505050565b7f496e73756666696369656e7420616c6c6f77616e636500000000000000000000600082015250565b60006112c460168361113a565b91506112cf8261128e565b602082019050919050565b600060208201905081810360008301526112f3816112b7565b9050919050565b600060608201905061130f6000830186610eb7565b61131c6020830185610eb7565b6113296040830184610cbd565b949350505050565b61133a81610da1565b811461134557600080fd5b50565b60008151905061135781611331565b92915050565b60006020828403121561137357611372610b1a565b5b600061138184828501611348565b91505092915050565b7f546f6b656e207472616e73666572206661696c65640000000000000000000000600082015250565b60006113c060158361113a565b91506113cb8261138a565b602082019050919050565b600060208201905081810360008301526113ef816113b3565b9050919050565b60006114018261100c565b61140b818561113a565b935061141b818560208601611022565b61142481610b2e565b840191505092915050565b6000604082019050818103600083015261144981856113f6565b90506114586020830184610cbd565b9392505050565b7f5072696365206d7573742062652067726561746572207468616e203000000000600082015250565b6000611495601c8361113a565b91506114a08261145f565b602082019050919050565b600060208201905081810360008301526114c481611488565b9050919050565b7f436f7572736520616c7265616479206578697374730000000000000000000000600082015250565b600061150160158361113a565b915061150c826114cb565b602082019050919050565b60006020820190508181036000830152611530816114f4565b905091905056fea26469706673582212209b5245c86c27fef5376b816a4030d556b99f0a49862f08ddde20ccb2f38534f864736f6c63430008150033",
  "immutableReferences": {},
  "source": "// SPDX-License-Identifier: MIT\npragma solidity ^0.8.0;\n\nimport \"@openzeppelin/contracts/token/ERC20/IERC20.sol\";\n\ncontract CourseRegistry {\n    struct Course {\n        uint256 price;\n        address creator;\n        address[] students;\n    }\n\n    IERC20 public owcToken;\n    mapping(string => Course) public courses;\n\n    event CoursePurchased(string courseName, address indexed student, uint256 price);\n    event CourseCreated(string courseName, address indexed creator, uint256 price);\n\n    constructor(address _owcTokenAddress) {\n        owcToken = IERC20(_owcTokenAddress);\n    }\n\n    function createCourse(string memory courseName, uint256 price) external {\n        require(price > 0, \"Price must be greater than 0\");\n        require(courses[courseName].price == 0, \"Course already exists\");\n\n        courses[courseName].price = price;\n        courses[courseName].creator = msg.sender;\n        courses[courseName].students.push(msg.sender);\n\n        emit CourseCreated(courseName, msg.sender, price);\n    }\n\n    function purchaseCourse(string memory courseName) external {\n        Course storage course = courses[courseName];\n        require(course.price > 0, \"Course does not exist\");\n        require(owcToken.balanceOf(msg.sender) >= course.price, \"Insufficient OWC balance\");\n        require(owcToken.allowance(msg.sender, address(this)) >= course.price, \"Insufficient allowance\");\n\n        bool success = owcToken.transferFrom(msg.sender, course.creator, course.price);\n        require(success, \"Token transfer failed\");\n        \n        course.students.push(msg.sender);\n        emit CoursePurchased(courseName, msg.sender, course.price);\n    }\n\n    function getCourseStudents(string memory courseName) external view returns (address[] memory) {\n        return courses[courseName].students;\n    }\n\n    function hasPurchased(string memory courseName, address student) external view returns (bool) {\n        address[] memory students = courses[courseName].students;\n        for (uint i = 0; i < students.length; i++) {\n            if (students[i] == student) {\n                return true;\n            }\n        }\n        return false;\n    }\n\n    function getCoursePrice(string memory courseName) external view returns (uint256) {\n        return courses[courseName].price;\n    }\n\n    function getCourseCreator(string memory courseName) external view returns (address) {\n        return courses[courseName].creator;\n    }\n}",
  "sourcePath": "/Users/firebushtree/Desktop/code/yideng/web3-college/contract/contracts/CourseRegistry.sol",
  "compiler": {
    "name": "solc",
    "version": "0.8.21+commit.d9974bed.Emscripten.clang"
  },
  "schemaVersion": "3.4.16",
  "updatedAt": "2025-09-02T03:33:40.254Z",
  "networkType": "ethereum",
  "devdoc": {
    "kind": "dev",
    "methods": {},
    "version": 1
  },
  "userdoc": {
    "kind": "user",
    "methods": {},
    "version": 1
  }
}