{
  "contractName": "CourseRegistry",
  "abi": [
    {
      "inputs": [
        {
          "internalType": "address",
          "name": "_owcTokenAddress",
          "type": "address"
        }
      ],
      "stateMutability": "nonpayable",
      "type": "constructor"
    },
    {
      "anonymous": false,
      "inputs": [
        {
          "indexed": false,
          "internalType": "string",
          "name": "courseName",
          "type": "string"
        },
        {
          "indexed": true,
          "internalType": "address",
          "name": "creator",
          "type": "address"
        },
        {
          "indexed": false,
          "internalType": "uint256",
          "name": "price",
          "type": "uint256"
        }
      ],
      "name": "CourseCreated",
      "type": "event"
    },
    {
      "anonymous": false,
      "inputs": [
        {
          "indexed": false,
          "internalType": "string",
          "name": "courseName",
          "type": "string"
        },
        {
          "indexed": true,
          "internalType": "address",
          "name": "student",
          "type": "address"
        },
        {
          "indexed": false,
          "internalType": "uint256",
          "name": "price",
          "type": "uint256"
        }
      ],
      "name": "CoursePurchased",
      "type": "event"
    },
    {
      "inputs": [
        {
          "internalType": "string",
          "name": "",
          "type": "string"
        }
      ],
      "name": "courses",
      "outputs": [
        {
          "internalType": "uint256",
          "name": "price",
          "type": "uint256"
        },
        {
          "internalType": "address",
          "name": "creator",
          "type": "address"
        }
      ],
      "stateMutability": "view",
      "type": "function",
      "constant": true
    },
    {
      "inputs": [],
      "name": "owcToken",
      "outputs": [
        {
          "internalType": "contract IERC20",
          "name": "",
          "type": "address"
        }
      ],
      "stateMutability": "view",
      "type": "function",
      "constant": true
    },
    {
      "inputs": [
        {
          "internalType": "string",
          "name": "courseName",
          "type": "string"
        },
        {
          "internalType": "uint256",
          "name": "price",
          "type": "uint256"
        }
      ],
      "name": "createCourse",
      "outputs": [],
      "stateMutability": "nonpayable",
      "type": "function"
    },
    {
      "inputs": [
        {
          "internalType": "string",
          "name": "courseName",
          "type": "string"
        }
      ],
      "name": "purchaseCourse",
      "outputs": [],
      "stateMutability": "nonpayable",
      "type": "function"
    },
    {
      "inputs": [
        {
          "internalType": "string",
          "name": "courseName",
          "type": "string"
        }
      ],
      "name": "getCourseStudents",
      "outputs": [
        {
          "internalType": "address[]",
          "name": "",
          "type": "address[]"
        }
      ],
      "stateMutability": "view",
      "type": "function",
      "constant": true
    },
    {
      "inputs": [
        {
          "internalType": "string",
          "name": "courseName",
          "type": "string"
        },
        {
          "internalType": "address",
          "name": "student",
          "type": "address"
        }
      ],
      "name": "hasPurchased",
      "outputs": [
        {
          "internalType": "bool",
          "name": "",
          "type": "bool"
        }
      ],
      "stateMutability": "view",
      "type": "function",
      "constant": true
    },
    {
      "inputs": [
        {
          "internalType": "string",
          "name": "courseName",
          "type": "string"
        }
      ],
      "name": "getCoursePrice",
      "outputs": [
        {
          "internalType": "uint256",
          "name": "",
          "type": "uint256"
        }
      ],
      "stateMutability": "view",
      "type": "function",
      "constant": true
    },
    {
      "inputs": [
        {
          "internalType": "string",
          "name": "courseName",
          "type": "string"
        }
      ],
      "name": "getCourseCreator",
      "outputs": [
        {
          "internalType": "address",
          "name": "",
          "type": "address"
        }
      ],
      "stateMutability": "view",
      "type": "function",
      "constant": true
    }
  ],
  "bytecode": "0x60806040523480156200001157600080fd5b5060405162001453380380620014538339818101604052810190620000379190620000e8565b806000806101000a81548173ffffffffffffffffffffffffffffffffffffffff021916908373ffffffffffffffffffffffffffffffffffffffff160217905550506200011a565b600080fd5b600073ffffffffffffffffffffffffffffffffffffffff82169050919050565b6000620000b08262000083565b9050919050565b620000c281620000a3565b8114620000ce57600080fd5b50565b600081519050620000e281620000b7565b92915050565b6000602082840312156200010157620001006200007e565b5b60006200011184828501620000d1565b91505092915050565b611329806200012a6000396000f3fe608060405234801561001057600080fd5b50600436106100a5576000357c01000000000000000000000000000000000000000000000000000000009004806367589b6f1161007857806367589b6f1461016b5780639855389814610187578063a1db0e27146101a5578063e1f702be146101c1576100a5565b8063265f5850146100aa5780632dc6a5b8146100da5780634fba15771461010a5780635d1c6dce1461013a575b600080fd5b6100c460048036038101906100bf9190610b27565b6101f1565b6040516100d19190610b89565b60405180910390f35b6100f460048036038101906100ef9190610c02565b61021c565b6040516101019190610c79565b60405180910390f35b610124600480360381019061011f9190610b27565b61034b565b6040516101319190610d52565b60405180910390f35b610154600480360381019061014f9190610b27565b6103fa565b604051610162929190610d83565b60405180910390f35b61018560048036038101906101809190610b27565b610454565b005b61018f61075b565b60405161019c9190610e0b565b60405180910390f35b6101bf60048036038101906101ba9190610e52565b61077f565b005b6101db60048036038101906101d69190610b27565b610982565b6040516101e89190610eae565b60405180910390f35b60006001826040516102039190610f3a565b9081526020016040518091039020600001549050919050565b60008060018460405161022f9190610f3a565b90815260200160405180910390206002018054806020026020016040519081016040528092919081815260200182805480156102c057602002820191906000526020600020905b8160009054906101000a900473ffffffffffffffffffffffffffffffffffffffff1673ffffffffffffffffffffffffffffffffffffffff1681526020019060010190808311610276575b5050505050905060005b815181101561033e578373ffffffffffffffffffffffffffffffffffffffff168282815181106102fd576102fc610f51565b5b602002602001015173ffffffffffffffffffffffffffffffffffffffff160361032b57600192505050610345565b808061033690610faf565b9150506102ca565b5060009150505b92915050565b606060018260405161035d9190610f3a565b90815260200160405180910390206002018054806020026020016040519081016040528092919081815260200182805480156103ee57602002820191906000526020600020905b8160009054906101000a900473ffffffffffffffffffffffffffffffffffffffff1673ffffffffffffffffffffffffffffffffffffffff16815260200190600101908083116103a4575b50505050509050919050565b6001818051602081018201805184825260208301602085012081835280955050505050506000915090508060000154908060010160009054906101000a900473ffffffffffffffffffffffffffffffffffffffff16905082565b60006001826040516104669190610f3a565b9081526020016040518091039020905060008160000154116104bd576040517f08c379a00000000000000000000000000000000000000000000000000000000081526004016104b490611054565b60405180910390fd5b806000015460008054906101000a900473ffffffffffffffffffffffffffffffffffffffff1673ffffffffffffffffffffffffffffffffffffffff166370a08231336040518263ffffffff167c01000000000000000000000000000000000000000000000000000000000281526004016105379190610eae565b602060405180830381865afa158015610554573d6000803e3d6000fd5b505050506040513d601f19601f820116820180604052508101906105789190611089565b10156105b9576040517f08c379a00000000000000000000000000000000000000000000000000000000081526004016105b090611102565b60405180910390fd5b60008054906101000a900473ffffffffffffffffffffffffffffffffffffffff1673ffffffffffffffffffffffffffffffffffffffff166323b872dd338360010160009054906101000a900473ffffffffffffffffffffffffffffffffffffffff1684600001546040518463ffffffff167c010000000000000000000000000000000000000000000000000000000002815260040161065a93929190611122565b6020604051808303816000875af1158015610679573d6000803e3d6000fd5b505050506040513d601f19601f8201168201806040525081019061069d9190611185565b5080600201339080600181540180825580915050600190039060005260206000200160009091909190916101000a81548173ffffffffffffffffffffffffffffffffffffffff021916908373ffffffffffffffffffffffffffffffffffffffff1602179055503373ffffffffffffffffffffffffffffffffffffffff167f716e6395af1503b6908e71b25e3456736b92afb151fd68f910dac3558c2a394d83836000015460405161074f9291906111eb565b60405180910390a25050565b60008054906101000a900473ffffffffffffffffffffffffffffffffffffffff1681565b600081116107c2576040517f08c379a00000000000000000000000000000000000000000000000000000000081526004016107b990611267565b60405180910390fd5b60006001836040516107d49190610f3a565b90815260200160405180910390206000015414610826576040517f08c379a000000000000000000000000000000000000000000000000000000000815260040161081d906112d3565b60405180910390fd5b806001836040516108379190610f3a565b9081526020016040518091039020600001819055503360018360405161085d9190610f3a565b908152602001604051809103902060010160006101000a81548173ffffffffffffffffffffffffffffffffffffffff021916908373ffffffffffffffffffffffffffffffffffffffff1602179055506001826040516108bc9190610f3a565b9081526020016040518091039020600201339080600181540180825580915050600190039060005260206000200160009091909190916101000a81548173ffffffffffffffffffffffffffffffffffffffff021916908373ffffffffffffffffffffffffffffffffffffffff1602179055503373ffffffffffffffffffffffffffffffffffffffff167f046f45bcceb06d1fd12aab61a8f4280d1ad879cc6c452a315b3dcc8108f2d10783836040516109769291906111eb565b60405180910390a25050565b60006001826040516109949190610f3a565b908152602001604051809103902060010160009054906101000a900473ffffffffffffffffffffffffffffffffffffffff169050919050565b6000604051905090565b600080fd5b600080fd5b600080fd5b600080fd5b6000601f19601f8301169050919050565b7f4e487b7100000000000000000000000000000000000000000000000000000000600052604160045260246000fd5b610a34826109eb565b810181811067ffffffffffffffff82111715610a5357610a526109fc565b5b80604052505050565b6000610a666109cd565b9050610a728282610a2b565b919050565b600067ffffffffffffffff821115610a9257610a916109fc565b5b610a9b826109eb565b9050602081019050919050565b82818337600083830152505050565b6000610aca610ac584610a77565b610a5c565b905082815260208101848484011115610ae657610ae56109e6565b5b610af1848285610aa8565b509392505050565b600082601f830112610b0e57610b0d6109e1565b5b8135610b1e848260208601610ab7565b91505092915050565b600060208284031215610b3d57610b3c6109d7565b5b600082013567ffffffffffffffff811115610b5b57610b5a6109dc565b5b610b6784828501610af9565b91505092915050565b6000819050919050565b610b8381610b70565b82525050565b6000602082019050610b9e6000830184610b7a565b92915050565b600073ffffffffffffffffffffffffffffffffffffffff82169050919050565b6000610bcf82610ba4565b9050919050565b610bdf81610bc4565b8114610bea57600080fd5b50565b600081359050610bfc81610bd6565b92915050565b60008060408385031215610c1957610c186109d7565b5b600083013567ffffffffffffffff811115610c3757610c366109dc565b5b610c4385828601610af9565b9250506020610c5485828601610bed565b9150509250929050565b60008115159050919050565b610c7381610c5e565b82525050565b6000602082019050610c8e6000830184610c6a565b92915050565b600081519050919050565b600082825260208201905092915050565b6000819050602082019050919050565b610cc981610bc4565b82525050565b6000610cdb8383610cc0565b60208301905092915050565b6000602082019050919050565b6000610cff82610c94565b610d098185610c9f565b9350610d1483610cb0565b8060005b83811015610d45578151610d2c8882610ccf565b9750610d3783610ce7565b925050600181019050610d18565b5085935050505092915050565b60006020820190508181036000830152610d6c8184610cf4565b905092915050565b610d7d81610bc4565b82525050565b6000604082019050610d986000830185610b7a565b610da56020830184610d74565b9392505050565b6000819050919050565b6000610dd1610dcc610dc784610ba4565b610dac565b610ba4565b9050919050565b6000610de382610db6565b9050919050565b6000610df582610dd8565b9050919050565b610e0581610dea565b82525050565b6000602082019050610e206000830184610dfc565b92915050565b610e2f81610b70565b8114610e3a57600080fd5b50565b600081359050610e4c81610e26565b92915050565b60008060408385031215610e6957610e686109d7565b5b600083013567ffffffffffffffff811115610e8757610e866109dc565b5b610e9385828601610af9565b9250506020610ea485828601610e3d565b9150509250929050565b6000602082019050610ec36000830184610d74565b92915050565b600081519050919050565b600081905092915050565b60005b83811015610efd578082015181840152602081019050610ee2565b60008484015250505050565b6000610f1482610ec9565b610f1e8185610ed4565b9350610f2e818560208601610edf565b80840191505092915050565b6000610f468284610f09565b915081905092915050565b7f4e487b7100000000000000000000000000000000000000000000000000000000600052603260045260246000fd5b7f4e487b7100000000000000000000000000000000000000000000000000000000600052601160045260246000fd5b6000610fba82610b70565b91507fffffffffffffffffffffffffffffffffffffffffffffffffffffffffffffffff8203610fec57610feb610f80565b5b600182019050919050565b600082825260208201905092915050565b7f436f7572736520646f6573206e6f742065786973740000000000000000000000600082015250565b600061103e601583610ff7565b915061104982611008565b602082019050919050565b6000602082019050818103600083015261106d81611031565b9050919050565b60008151905061108381610e26565b92915050565b60006020828403121561109f5761109e6109d7565b5b60006110ad84828501611074565b91505092915050565b7f496e73756666696369656e74204f57432062616c616e63650000000000000000600082015250565b60006110ec601883610ff7565b91506110f7826110b6565b602082019050919050565b6000602082019050818103600083015261111b816110df565b9050919050565b60006060820190506111376000830186610d74565b6111446020830185610d74565b6111516040830184610b7a565b949350505050565b61116281610c5e565b811461116d57600080fd5b50565b60008151905061117f81611159565b92915050565b60006020828403121561119b5761119a6109d7565b5b60006111a984828501611170565b91505092915050565b60006111bd82610ec9565b6111c78185610ff7565b93506111d7818560208601610edf565b6111e0816109eb565b840191505092915050565b6000604082019050818103600083015261120581856111b2565b90506112146020830184610b7a565b9392505050565b7f5072696365206d7573742062652067726561746572207468616e203000000000600082015250565b6000611251601c83610ff7565b915061125c8261121b565b602082019050919050565b6000602082019050818103600083015261128081611244565b9050919050565b7f436f7572736520616c7265616479206578697374730000000000000000000000600082015250565b60006112bd601583610ff7565b91506112c882611287565b602082019050919050565b600060208201905081810360008301526112ec816112b0565b905091905056fea264697066735822122094fa789a6ee9be1905bbc602516b3ffa994841d45603a242e241680f06acb69d64736f6c63430008150033",
  "immutableReferences": {},
  "source": "// SPDX-License-Identifier: MIT\npragma solidity ^0.8.0;\n\nimport \"@openzeppelin/contracts/token/ERC20/IERC20.sol\";\n\ncontract CourseRegistry {\n    struct Course {\n        uint256 price;\n        address creator;\n        address[] students;\n    }\n\n    IERC20 public owcToken;\n    mapping(string => Course) public courses;\n\n    event CoursePurchased(string courseName, address indexed student, uint256 price);\n    event CourseCreated(string courseName, address indexed creator, uint256 price);\n\n    constructor(address _owcTokenAddress) {\n        owcToken = IERC20(_owcTokenAddress);\n    }\n\n    function createCourse(string memory courseName, uint256 price) external {\n        require(price > 0, \"Price must be greater than 0\");\n        require(courses[courseName].price == 0, \"Course already exists\");\n\n        courses[courseName].price = price;\n        courses[courseName].creator = msg.sender;\n        courses[courseName].students.push(msg.sender);\n\n        emit CourseCreated(courseName, msg.sender, price);\n    }\n\n    function purchaseCourse(string memory courseName) external {\n        Course storage course = courses[courseName];\n        require(course.price > 0, \"Course does not exist\");\n        require(owcToken.balanceOf(msg.sender) >= course.price, \"Insufficient OWC balance\");\n\n        owcToken.transferFrom(msg.sender, course.creator, course.price);\n        course.students.push(msg.sender);\n        emit CoursePurchased(courseName, msg.sender, course.price);\n    }\n\n    function getCourseStudents(string memory courseName) external view returns (address[] memory) {\n        return courses[courseName].students;\n    }\n\n    function hasPurchased(string memory courseName, address student) external view returns (bool) {\n        address[] memory students = courses[courseName].students;\n        for (uint i = 0; i < students.length; i++) {\n            if (students[i] == student) {\n                return true;\n            }\n        }\n        return false;\n    }\n\n    function getCoursePrice(string memory courseName) external view returns (uint256) {\n        return courses[courseName].price;\n    }\n\n    function getCourseCreator(string memory courseName) external view returns (address) {\n        return courses[courseName].creator;\n    }\n}",
  "sourcePath": "/Users/firebushtree/Desktop/code/yideng/web3-college/contract/contracts/CourseRegistry.sol",
  "compiler": {
    "name": "solc",
    "version": "0.8.21+commit.d9974bed.Emscripten.clang"
  },
  "schemaVersion": "3.4.16",
  "updatedAt": "2025-09-02T03:04:08.794Z",
  "networkType": "ethereum",
  "devdoc": {
    "kind": "dev",
    "methods": {},
    "version": 1
  },
  "userdoc": {
    "kind": "user",
    "methods": {},
    "version": 1
  }
}