{
  "contractName": "CourseRegistry",
  "abi": [
    {
      "inputs": [
        {
          "internalType": "address",
          "name": "_owcTokenAddress",
          "type": "address"
        }
      ],
      "stateMutability": "nonpayable",
      "type": "constructor"
    },
    {
      "inputs": [
        {
          "internalType": "address",
          "name": "owner",
          "type": "address"
        }
      ],
      "name": "OwnableInvalidOwner",
      "type": "error"
    },
    {
      "inputs": [
        {
          "internalType": "address",
          "name": "account",
          "type": "address"
        }
      ],
      "name": "OwnableUnauthorizedAccount",
      "type": "error"
    },
    {
      "anonymous": false,
      "inputs": [
        {
          "indexed": false,
          "internalType": "string",
          "name": "courseName",
          "type": "string"
        },
        {
          "indexed": true,
          "internalType": "address",
          "name": "student",
          "type": "address"
        },
        {
          "indexed": false,
          "internalType": "uint256",
          "name": "reward",
          "type": "uint256"
        }
      ],
      "name": "CourseCompleted",
      "type": "event"
    },
    {
      "anonymous": false,
      "inputs": [
        {
          "indexed": false,
          "internalType": "string",
          "name": "courseName",
          "type": "string"
        },
        {
          "indexed": true,
          "internalType": "address",
          "name": "creator",
          "type": "address"
        },
        {
          "indexed": false,
          "internalType": "uint256",
          "name": "price",
          "type": "uint256"
        }
      ],
      "name": "CourseCreated",
      "type": "event"
    },
    {
      "anonymous": false,
      "inputs": [
        {
          "indexed": false,
          "internalType": "string",
          "name": "courseName",
          "type": "string"
        },
        {
          "indexed": true,
          "internalType": "address",
          "name": "student",
          "type": "address"
        },
        {
          "indexed": false,
          "internalType": "uint256",
          "name": "price",
          "type": "uint256"
        }
      ],
      "name": "CoursePurchased",
      "type": "event"
    },
    {
      "anonymous": false,
      "inputs": [
        {
          "indexed": true,
          "internalType": "address",
          "name": "previousOwner",
          "type": "address"
        },
        {
          "indexed": true,
          "internalType": "address",
          "name": "newOwner",
          "type": "address"
        }
      ],
      "name": "OwnershipTransferred",
      "type": "event"
    },
    {
      "anonymous": false,
      "inputs": [
        {
          "indexed": true,
          "internalType": "address",
          "name": "funder",
          "type": "address"
        },
        {
          "indexed": false,
          "internalType": "uint256",
          "name": "amount",
          "type": "uint256"
        }
      ],
      "name": "RewardPoolFunded",
      "type": "event"
    },
    {
      "anonymous": false,
      "inputs": [
        {
          "indexed": true,
          "internalType": "address",
          "name": "admin",
          "type": "address"
        },
        {
          "indexed": false,
          "internalType": "uint256",
          "name": "amount",
          "type": "uint256"
        }
      ],
      "name": "RewardPoolWithdrawn",
      "type": "event"
    },
    {
      "inputs": [],
      "name": "COMPLETION_REWARD",
      "outputs": [
        {
          "internalType": "uint256",
          "name": "",
          "type": "uint256"
        }
      ],
      "stateMutability": "view",
      "type": "function",
      "constant": true
    },
    {
      "inputs": [
        {
          "internalType": "string",
          "name": "",
          "type": "string"
        },
        {
          "internalType": "address",
          "name": "",
          "type": "address"
        }
      ],
      "name": "courseCompleted",
      "outputs": [
        {
          "internalType": "bool",
          "name": "",
          "type": "bool"
        }
      ],
      "stateMutability": "view",
      "type": "function",
      "constant": true
    },
    {
      "inputs": [
        {
          "internalType": "string",
          "name": "",
          "type": "string"
        }
      ],
      "name": "courses",
      "outputs": [
        {
          "internalType": "uint256",
          "name": "price",
          "type": "uint256"
        },
        {
          "internalType": "address",
          "name": "creator",
          "type": "address"
        }
      ],
      "stateMutability": "view",
      "type": "function",
      "constant": true
    },
    {
      "inputs": [],
      "name": "owcToken",
      "outputs": [
        {
          "internalType": "contract IERC20",
          "name": "",
          "type": "address"
        }
      ],
      "stateMutability": "view",
      "type": "function",
      "constant": true
    },
    {
      "inputs": [],
      "name": "owner",
      "outputs": [
        {
          "internalType": "address",
          "name": "",
          "type": "address"
        }
      ],
      "stateMutability": "view",
      "type": "function",
      "constant": true
    },
    {
      "inputs": [],
      "name": "renounceOwnership",
      "outputs": [],
      "stateMutability": "nonpayable",
      "type": "function"
    },
    {
      "inputs": [],
      "name": "rewardPool",
      "outputs": [
        {
          "internalType": "uint256",
          "name": "",
          "type": "uint256"
        }
      ],
      "stateMutability": "view",
      "type": "function",
      "constant": true
    },
    {
      "inputs": [
        {
          "internalType": "address",
          "name": "",
          "type": "address"
        }
      ],
      "name": "totalRewardsEarned",
      "outputs": [
        {
          "internalType": "uint256",
          "name": "",
          "type": "uint256"
        }
      ],
      "stateMutability": "view",
      "type": "function",
      "constant": true
    },
    {
      "inputs": [
        {
          "internalType": "address",
          "name": "newOwner",
          "type": "address"
        }
      ],
      "name": "transferOwnership",
      "outputs": [],
      "stateMutability": "nonpayable",
      "type": "function"
    },
    {
      "inputs": [
        {
          "internalType": "string",
          "name": "courseName",
          "type": "string"
        },
        {
          "internalType": "uint256",
          "name": "price",
          "type": "uint256"
        }
      ],
      "name": "createCourse",
      "outputs": [],
      "stateMutability": "nonpayable",
      "type": "function"
    },
    {
      "inputs": [
        {
          "internalType": "string",
          "name": "courseName",
          "type": "string"
        }
      ],
      "name": "purchaseCourse",
      "outputs": [],
      "stateMutability": "nonpayable",
      "type": "function"
    },
    {
      "inputs": [
        {
          "internalType": "string",
          "name": "courseName",
          "type": "string"
        }
      ],
      "name": "getCourseStudents",
      "outputs": [
        {
          "internalType": "address[]",
          "name": "",
          "type": "address[]"
        }
      ],
      "stateMutability": "view",
      "type": "function",
      "constant": true
    },
    {
      "inputs": [
        {
          "internalType": "string",
          "name": "courseName",
          "type": "string"
        },
        {
          "internalType": "address",
          "name": "student",
          "type": "address"
        }
      ],
      "name": "hasPurchased",
      "outputs": [
        {
          "internalType": "bool",
          "name": "",
          "type": "bool"
        }
      ],
      "stateMutability": "view",
      "type": "function",
      "constant": true
    },
    {
      "inputs": [
        {
          "internalType": "string",
          "name": "courseName",
          "type": "string"
        }
      ],
      "name": "getCoursePrice",
      "outputs": [
        {
          "internalType": "uint256",
          "name": "",
          "type": "uint256"
        }
      ],
      "stateMutability": "view",
      "type": "function",
      "constant": true
    },
    {
      "inputs": [
        {
          "internalType": "string",
          "name": "courseName",
          "type": "string"
        }
      ],
      "name": "getCourseCreator",
      "outputs": [
        {
          "internalType": "address",
          "name": "",
          "type": "address"
        }
      ],
      "stateMutability": "view",
      "type": "function",
      "constant": true
    },
    {
      "inputs": [
        {
          "internalType": "uint256",
          "name": "amount",
          "type": "uint256"
        }
      ],
      "name": "fundRewardPool",
      "outputs": [],
      "stateMutability": "nonpayable",
      "type": "function"
    },
    {
      "inputs": [
        {
          "internalType": "uint256",
          "name": "amount",
          "type": "uint256"
        }
      ],
      "name": "withdrawFromRewardPool",
      "outputs": [],
      "stateMutability": "nonpayable",
      "type": "function"
    },
    {
      "inputs": [
        {
          "internalType": "string",
          "name": "courseName",
          "type": "string"
        }
      ],
      "name": "completeCourse",
      "outputs": [],
      "stateMutability": "nonpayable",
      "type": "function"
    },
    {
      "inputs": [
        {
          "internalType": "string",
          "name": "courseName",
          "type": "string"
        },
        {
          "internalType": "address",
          "name": "student",
          "type": "address"
        }
      ],
      "name": "hasCourseCompleted",
      "outputs": [
        {
          "internalType": "bool",
          "name": "",
          "type": "bool"
        }
      ],
      "stateMutability": "view",
      "type": "function",
      "constant": true
    },
    {
      "inputs": [
        {
          "internalType": "address",
          "name": "student",
          "type": "address"
        }
      ],
      "name": "getStudentTotalRewards",
      "outputs": [
        {
          "internalType": "uint256",
          "name": "",
          "type": "uint256"
        }
      ],
      "stateMutability": "view",
      "type": "function",
      "constant": true
    },
    {
      "inputs": [],
      "name": "getRewardPool",
      "outputs": [
        {
          "internalType": "uint256",
          "name": "",
          "type": "uint256"
        }
      ],
      "stateMutability": "view",
      "type": "function",
      "constant": true
    },
    {
      "inputs": [
        {
          "internalType": "string",
          "name": "courseName",
          "type": "string"
        }
      ],
      "name": "getCompletedStudents",
      "outputs": [
        {
          "internalType": "address[]",
          "name": "",
          "type": "address[]"
        }
      ],
      "stateMutability": "view",
      "type": "function",
      "constant": true
    }
  ],
  "bytecode": "0x60806040523480156200001157600080fd5b506040516200301338038062003013833981810160405281019062000037919062000246565b33600073ffffffffffffffffffffffffffffffffffffffff168173ffffffffffffffffffffffffffffffffffffffff1603620000ad5760006040517f1e4fbdf7000000000000000000000000000000000000000000000000000000008152600401620000a4919062000289565b60405180910390fd5b620000c78162000118640100000000026401000000009004565b5080600160006101000a81548173ffffffffffffffffffffffffffffffffffffffff021916908373ffffffffffffffffffffffffffffffffffffffff160217905550600060038190555050620002a6565b60008060009054906101000a900473ffffffffffffffffffffffffffffffffffffffff169050816000806101000a81548173ffffffffffffffffffffffffffffffffffffffff021916908373ffffffffffffffffffffffffffffffffffffffff1602179055508173ffffffffffffffffffffffffffffffffffffffff168173ffffffffffffffffffffffffffffffffffffffff167f8be0079c531659141344cd1fd0a4f28419497f9722a3daafe3b4186f6b6457e060405160405180910390a35050565b600080fd5b600073ffffffffffffffffffffffffffffffffffffffff82169050919050565b60006200020e82620001e1565b9050919050565b620002208162000201565b81146200022c57600080fd5b50565b600081519050620002408162000215565b92915050565b6000602082840312156200025f576200025e620001dc565b5b60006200026f848285016200022f565b91505092915050565b620002838162000201565b82525050565b6000602082019050620002a0600083018462000278565b92915050565b612d5d80620002b66000396000f3fe608060405234801561001057600080fd5b506004361061015f576000357c010000000000000000000000000000000000000000000000000000000090048063715018a6116100d5578063e1f702be11610099578063e1f702be146103a7578063e4f24cb0146103d7578063e505e3f314610407578063f2fde38b14610425578063f4a42e2014610441578063fee122ef146104715761015f565b8063715018a6146103155780638da5cb5b1461031f578063985538981461033d578063a1db0e271461035b578063ae62766c146103775761015f565b80632dc6a5b8116101275780632dc6a5b81461021a5780632f7385b71461024a5780634fba15771461027a5780635d1c6dce146102aa57806366666aa9146102db57806367589b6f146102f95761015f565b80630eb6bc63146101645780631b8b13a7146101805780631d583e0d1461019e57806321a8473b146101ba578063265f5850146101ea575b600080fd5b61017e60048036038101906101799190611fe9565b61048d565b005b61018861086a565b604051610195919061204b565b60405180910390f35b6101b860048036038101906101b39190612092565b610874565b005b6101d460048036038101906101cf919061211d565b610c22565b6040516101e1919061204b565b60405180910390f35b61020460048036038101906101ff9190611fe9565b610c6b565b604051610211919061204b565b60405180910390f35b610234600480360381019061022f919061214a565b610c96565b60405161024191906121c1565b60405180910390f35b610264600480360381019061025f919061214a565b610dc5565b60405161027191906121c1565b60405180910390f35b610294600480360381019061028f9190611fe9565b610e38565b6040516102a1919061229a565b60405180910390f35b6102c460048036038101906102bf9190611fe9565b610ee7565b6040516102d29291906122cb565b60405180910390f35b6102e3610f41565b6040516102f0919061204b565b60405180910390f35b610313600480360381019061030e9190611fe9565b610f47565b005b61031d611396565b005b6103276113aa565b60405161033491906122f4565b60405180910390f35b6103456113d3565b604051610352919061236e565b60405180910390f35b61037560048036038101906103709190612389565b6113f9565b005b610391600480360381019061038c919061214a565b6115fc565b60405161039e91906121c1565b60405180910390f35b6103c160048036038101906103bc9190611fe9565b611641565b6040516103ce91906122f4565b60405180910390f35b6103f160048036038101906103ec919061211d565b61168c565b6040516103fe919061204b565b60405180910390f35b61040f6116a4565b60405161041c919061204b565b60405180910390f35b61043f600480360381019061043a919061211d565b6116a9565b005b61045b60048036038101906104569190611fe9565b61172f565b604051610468919061229a565b60405180910390f35b61048b60048036038101906104869190612092565b611a12565b005b600060028260405161049f9190612456565b9081526020016040518091039020905060008160000154116104f6576040517f08c379a00000000000000000000000000000000000000000000000000000000081526004016104ed906124ca565b60405180910390fd5b6105008233611c0d565b61053f576040517f08c379a00000000000000000000000000000000000000000000000000000000081526004016105369061255c565b60405180910390fd5b60048260405161054f9190612456565b908152602001604051809103902060003373ffffffffffffffffffffffffffffffffffffffff1673ffffffffffffffffffffffffffffffffffffffff16815260200190815260200160002060009054906101000a900460ff16156105e8576040517f08c379a00000000000000000000000000000000000000000000000000000000081526004016105df906125c8565b60405180910390fd5b6032600354101561062e576040517f08c379a000000000000000000000000000000000000000000000000000000000815260040161062590612634565b60405180910390fd5b60016004836040516106409190612456565b908152602001604051809103902060003373ffffffffffffffffffffffffffffffffffffffff1673ffffffffffffffffffffffffffffffffffffffff16815260200190815260200160002060006101000a81548160ff0219169083151502179055506032600560003373ffffffffffffffffffffffffffffffffffffffff1673ffffffffffffffffffffffffffffffffffffffff16815260200190815260200160002060008282546106f29190612683565b9250508190555060326003600082825461070c91906126b7565b925050819055506000600160009054906101000a900473ffffffffffffffffffffffffffffffffffffffff1673ffffffffffffffffffffffffffffffffffffffff1663a9059cbb3360326040518363ffffffff167c010000000000000000000000000000000000000000000000000000000002815260040161078f9291906126eb565b6020604051808303816000875af11580156107ae573d6000803e3d6000fd5b505050506040513d601f19601f820116820180604052508101906107d29190612740565b905080610814576040517f08c379a000000000000000000000000000000000000000000000000000000000815260040161080b906127b9565b60405180910390fd5b3373ffffffffffffffffffffffffffffffffffffffff167f0c5dc4b9d98c69600cc80d62ec624a80847c4004fb4b7f7431a903b4a5f20e7f84603260405161085d929190612812565b60405180910390a2505050565b6000600354905090565b61087c611d3c565b600081116108bf576040517f08c379a00000000000000000000000000000000000000000000000000000000081526004016108b69061288e565b60405180910390fd5b80600160009054906101000a900473ffffffffffffffffffffffffffffffffffffffff1673ffffffffffffffffffffffffffffffffffffffff166370a08231336040518263ffffffff167c010000000000000000000000000000000000000000000000000000000002815260040161093791906122f4565b602060405180830381865afa158015610954573d6000803e3d6000fd5b505050506040513d601f19601f8201168201806040525081019061097891906128c3565b10156109b9576040517f08c379a00000000000000000000000000000000000000000000000000000000081526004016109b09061293c565b60405180910390fd5b80600160009054906101000a900473ffffffffffffffffffffffffffffffffffffffff1673ffffffffffffffffffffffffffffffffffffffff1663dd62ed3e33306040518363ffffffff167c0100000000000000000000000000000000000000000000000000000000028152600401610a3392919061295c565b602060405180830381865afa158015610a50573d6000803e3d6000fd5b505050506040513d601f19601f82011682018060405250810190610a7491906128c3565b1015610ab5576040517f08c379a0000000000000000000000000000000000000000000000000000000008152600401610aac906129d1565b60405180910390fd5b6000600160009054906101000a900473ffffffffffffffffffffffffffffffffffffffff1673ffffffffffffffffffffffffffffffffffffffff166323b872dd3330856040518463ffffffff167c0100000000000000000000000000000000000000000000000000000000028152600401610b32939291906129f1565b6020604051808303816000875af1158015610b51573d6000803e3d6000fd5b505050506040513d601f19601f82011682018060405250810190610b759190612740565b905080610bb7576040517f08c379a0000000000000000000000000000000000000000000000000000000008152600401610bae90612a74565b60405180910390fd5b8160036000828254610bc99190612683565b925050819055503373ffffffffffffffffffffffffffffffffffffffff167fd3c7d1587d8f93bae0fcfc5a820d2187e755a75ec28a06c20a9da047e1b01eb583604051610c16919061204b565b60405180910390a25050565b6000600560008373ffffffffffffffffffffffffffffffffffffffff1673ffffffffffffffffffffffffffffffffffffffff168152602001908152602001600020549050919050565b6000600282604051610c7d9190612456565b9081526020016040518091039020600001549050919050565b600080600284604051610ca99190612456565b9081526020016040518091039020600201805480602002602001604051908101604052809291908181526020018280548015610d3a57602002820191906000526020600020905b8160009054906101000a900473ffffffffffffffffffffffffffffffffffffffff1673ffffffffffffffffffffffffffffffffffffffff1681526020019060010190808311610cf0575b5050505050905060005b8151811015610db8578373ffffffffffffffffffffffffffffffffffffffff16828281518110610d7757610d76612a94565b5b602002602001015173ffffffffffffffffffffffffffffffffffffffff1603610da557600192505050610dbf565b8080610db090612ac3565b915050610d44565b5060009150505b92915050565b6000600483604051610dd79190612456565b908152602001604051809103902060008373ffffffffffffffffffffffffffffffffffffffff1673ffffffffffffffffffffffffffffffffffffffff16815260200190815260200160002060009054906101000a900460ff16905092915050565b6060600282604051610e4a9190612456565b9081526020016040518091039020600201805480602002602001604051908101604052809291908181526020018280548015610edb57602002820191906000526020600020905b8160009054906101000a900473ffffffffffffffffffffffffffffffffffffffff1673ffffffffffffffffffffffffffffffffffffffff1681526020019060010190808311610e91575b50505050509050919050565b6002818051602081018201805184825260208301602085012081835280955050505050506000915090508060000154908060010160009054906101000a900473ffffffffffffffffffffffffffffffffffffffff16905082565b60035481565b6000600282604051610f599190612456565b908152602001604051809103902090506000816000015411610fb0576040517f08c379a0000000000000000000000000000000000000000000000000000000008152600401610fa7906124ca565b60405180910390fd5b8060000154600160009054906101000a900473ffffffffffffffffffffffffffffffffffffffff1673ffffffffffffffffffffffffffffffffffffffff166370a08231336040518263ffffffff167c010000000000000000000000000000000000000000000000000000000002815260040161102c91906122f4565b602060405180830381865afa158015611049573d6000803e3d6000fd5b505050506040513d601f19601f8201168201806040525081019061106d91906128c3565b10156110ae576040517f08c379a00000000000000000000000000000000000000000000000000000000081526004016110a590612b57565b60405180910390fd5b8060000154600160009054906101000a900473ffffffffffffffffffffffffffffffffffffffff1673ffffffffffffffffffffffffffffffffffffffff1663dd62ed3e33306040518363ffffffff167c010000000000000000000000000000000000000000000000000000000002815260040161112c92919061295c565b602060405180830381865afa158015611149573d6000803e3d6000fd5b505050506040513d601f19601f8201168201806040525081019061116d91906128c3565b10156111ae576040517f08c379a00000000000000000000000000000000000000000000000000000000081526004016111a5906129d1565b60405180910390fd5b6000600160009054906101000a900473ffffffffffffffffffffffffffffffffffffffff1673ffffffffffffffffffffffffffffffffffffffff166323b872dd338460010160009054906101000a900473ffffffffffffffffffffffffffffffffffffffff1685600001546040518463ffffffff167c0100000000000000000000000000000000000000000000000000000000028152600401611253939291906129f1565b6020604051808303816000875af1158015611272573d6000803e3d6000fd5b505050506040513d601f19601f820116820180604052508101906112969190612740565b9050806112d8576040517f08c379a00000000000000000000000000000000000000000000000000000000081526004016112cf90612bc3565b60405180910390fd5b81600201339080600181540180825580915050600190039060005260206000200160009091909190916101000a81548173ffffffffffffffffffffffffffffffffffffffff021916908373ffffffffffffffffffffffffffffffffffffffff1602179055503373ffffffffffffffffffffffffffffffffffffffff167f716e6395af1503b6908e71b25e3456736b92afb151fd68f910dac3558c2a394d848460000154604051611389929190612812565b60405180910390a2505050565b61139e611d3c565b6113a86000611dc3565b565b60008060009054906101000a900473ffffffffffffffffffffffffffffffffffffffff16905090565b600160009054906101000a900473ffffffffffffffffffffffffffffffffffffffff1681565b6000811161143c576040517f08c379a000000000000000000000000000000000000000000000000000000000815260040161143390612c2f565b60405180910390fd5b600060028360405161144e9190612456565b908152602001604051809103902060000154146114a0576040517f08c379a000000000000000000000000000000000000000000000000000000000815260040161149790612c9b565b60405180910390fd5b806002836040516114b19190612456565b908152602001604051809103902060000181905550336002836040516114d79190612456565b908152602001604051809103902060010160006101000a81548173ffffffffffffffffffffffffffffffffffffffff021916908373ffffffffffffffffffffffffffffffffffffffff1602179055506002826040516115369190612456565b9081526020016040518091039020600201339080600181540180825580915050600190039060005260206000200160009091909190916101000a81548173ffffffffffffffffffffffffffffffffffffffff021916908373ffffffffffffffffffffffffffffffffffffffff1602179055503373ffffffffffffffffffffffffffffffffffffffff167f046f45bcceb06d1fd12aab61a8f4280d1ad879cc6c452a315b3dcc8108f2d10783836040516115f0929190612812565b60405180910390a25050565b6004828051602081018201805184825260208301602085012081835280955050505050506020528060005260406000206000915091509054906101000a900460ff1681565b60006002826040516116539190612456565b908152602001604051809103902060010160009054906101000a900473ffffffffffffffffffffffffffffffffffffffff169050919050565b60056020528060005260406000206000915090505481565b603281565b6116b1611d3c565b600073ffffffffffffffffffffffffffffffffffffffff168173ffffffffffffffffffffffffffffffffffffffff16036117235760006040517f1e4fbdf700000000000000000000000000000000000000000000000000000000815260040161171a91906122f4565b60405180910390fd5b61172c81611dc3565b50565b606060006002836040516117439190612456565b908152602001604051809103902090506000816002018054806020026020016040519081016040528092919081815260200182805480156117d957602002820191906000526020600020905b8160009054906101000a900473ffffffffffffffffffffffffffffffffffffffff1673ffffffffffffffffffffffffffffffffffffffff168152602001906001019080831161178f575b505050505090506000805b8251811015611897576004866040516117fd9190612456565b908152602001604051809103902060008483815181106118205761181f612a94565b5b602002602001015173ffffffffffffffffffffffffffffffffffffffff1673ffffffffffffffffffffffffffffffffffffffff16815260200190815260200160002060009054906101000a900460ff161561188457818061188090612ac3565b9250505b808061188f90612ac3565b9150506117e4565b5060008167ffffffffffffffff8111156118b4576118b3611ebe565b5b6040519080825280602002602001820160405280156118e25781602001602082028036833780820191505090505b5090506000805b8451811015611a04576004886040516119029190612456565b9081526020016040518091039020600086838151811061192557611924612a94565b5b602002602001015173ffffffffffffffffffffffffffffffffffffffff1673ffffffffffffffffffffffffffffffffffffffff16815260200190815260200160002060009054906101000a900460ff16156119f15784818151811061198d5761198c612a94565b5b60200260200101518383815181106119a8576119a7612a94565b5b602002602001019073ffffffffffffffffffffffffffffffffffffffff16908173ffffffffffffffffffffffffffffffffffffffff168152505081806119ed90612ac3565b9250505b80806119fc90612ac3565b9150506118e9565b508195505050505050919050565b611a1a611d3c565b60008111611a5d576040517f08c379a0000000000000000000000000000000000000000000000000000000008152600401611a549061288e565b60405180910390fd5b806003541015611aa2576040517f08c379a0000000000000000000000000000000000000000000000000000000008152600401611a9990612d07565b60405180910390fd5b6000600160009054906101000a900473ffffffffffffffffffffffffffffffffffffffff1673ffffffffffffffffffffffffffffffffffffffff1663a9059cbb33846040518363ffffffff167c0100000000000000000000000000000000000000000000000000000000028152600401611b1d9291906126eb565b6020604051808303816000875af1158015611b3c573d6000803e3d6000fd5b505050506040513d601f19601f82011682018060405250810190611b609190612740565b905080611ba2576040517f08c379a0000000000000000000000000000000000000000000000000000000008152600401611b9990612a74565b60405180910390fd5b8160036000828254611bb491906126b7565b925050819055503373ffffffffffffffffffffffffffffffffffffffff167fd64fd74db8f23bbb1e72895098d38c54d189117756b92af4f3efad317ef6f7e683604051611c01919061204b565b60405180910390a25050565b600080600284604051611c209190612456565b9081526020016040518091039020600201805480602002602001604051908101604052809291908181526020018280548015611cb157602002820191906000526020600020905b8160009054906101000a900473ffffffffffffffffffffffffffffffffffffffff1673ffffffffffffffffffffffffffffffffffffffff1681526020019060010190808311611c67575b5050505050905060005b8151811015611d2f578373ffffffffffffffffffffffffffffffffffffffff16828281518110611cee57611ced612a94565b5b602002602001015173ffffffffffffffffffffffffffffffffffffffff1603611d1c57600192505050611d36565b8080611d2790612ac3565b915050611cbb565b5060009150505b92915050565b611d44611e87565b73ffffffffffffffffffffffffffffffffffffffff16611d626113aa565b73ffffffffffffffffffffffffffffffffffffffff1614611dc157611d85611e87565b6040517f118cdaa7000000000000000000000000000000000000000000000000000000008152600401611db891906122f4565b60405180910390fd5b565b60008060009054906101000a900473ffffffffffffffffffffffffffffffffffffffff169050816000806101000a81548173ffffffffffffffffffffffffffffffffffffffff021916908373ffffffffffffffffffffffffffffffffffffffff1602179055508173ffffffffffffffffffffffffffffffffffffffff168173ffffffffffffffffffffffffffffffffffffffff167f8be0079c531659141344cd1fd0a4f28419497f9722a3daafe3b4186f6b6457e060405160405180910390a35050565b600033905090565b6000604051905090565b600080fd5b600080fd5b600080fd5b600080fd5b6000601f19601f8301169050919050565b7f4e487b7100000000000000000000000000000000000000000000000000000000600052604160045260246000fd5b611ef682611ead565b810181811067ffffffffffffffff82111715611f1557611f14611ebe565b5b80604052505050565b6000611f28611e8f565b9050611f348282611eed565b919050565b600067ffffffffffffffff821115611f5457611f53611ebe565b5b611f5d82611ead565b9050602081019050919050565b82818337600083830152505050565b6000611f8c611f8784611f39565b611f1e565b905082815260208101848484011115611fa857611fa7611ea8565b5b611fb3848285611f6a565b509392505050565b600082601f830112611fd057611fcf611ea3565b5b8135611fe0848260208601611f79565b91505092915050565b600060208284031215611fff57611ffe611e99565b5b600082013567ffffffffffffffff81111561201d5761201c611e9e565b5b61202984828501611fbb565b91505092915050565b6000819050919050565b61204581612032565b82525050565b6000602082019050612060600083018461203c565b92915050565b61206f81612032565b811461207a57600080fd5b50565b60008135905061208c81612066565b92915050565b6000602082840312156120a8576120a7611e99565b5b60006120b68482850161207d565b91505092915050565b600073ffffffffffffffffffffffffffffffffffffffff82169050919050565b60006120ea826120bf565b9050919050565b6120fa816120df565b811461210557600080fd5b50565b600081359050612117816120f1565b92915050565b60006020828403121561213357612132611e99565b5b600061214184828501612108565b91505092915050565b6000806040838503121561216157612160611e99565b5b600083013567ffffffffffffffff81111561217f5761217e611e9e565b5b61218b85828601611fbb565b925050602061219c85828601612108565b9150509250929050565b60008115159050919050565b6121bb816121a6565b82525050565b60006020820190506121d660008301846121b2565b92915050565b600081519050919050565b600082825260208201905092915050565b6000819050602082019050919050565b612211816120df565b82525050565b60006122238383612208565b60208301905092915050565b6000602082019050919050565b6000612247826121dc565b61225181856121e7565b935061225c836121f8565b8060005b8381101561228d5781516122748882612217565b975061227f8361222f565b925050600181019050612260565b5085935050505092915050565b600060208201905081810360008301526122b4818461223c565b905092915050565b6122c5816120df565b82525050565b60006040820190506122e0600083018561203c565b6122ed60208301846122bc565b9392505050565b600060208201905061230960008301846122bc565b92915050565b6000819050919050565b600061233461232f61232a846120bf565b61230f565b6120bf565b9050919050565b600061234682612319565b9050919050565b60006123588261233b565b9050919050565b6123688161234d565b82525050565b6000602082019050612383600083018461235f565b92915050565b600080604083850312156123a05761239f611e99565b5b600083013567ffffffffffffffff8111156123be576123bd611e9e565b5b6123ca85828601611fbb565b92505060206123db8582860161207d565b9150509250929050565b600081519050919050565b600081905092915050565b60005b838110156124195780820151818401526020810190506123fe565b60008484015250505050565b6000612430826123e5565b61243a81856123f0565b935061244a8185602086016123fb565b80840191505092915050565b60006124628284612425565b915081905092915050565b600082825260208201905092915050565b7f436f7572736520646f6573206e6f742065786973740000000000000000000000600082015250565b60006124b460158361246d565b91506124bf8261247e565b602082019050919050565b600060208201905081810360008301526124e3816124a7565b9050919050565b7f596f75206d7573742070757263686173652074686520636f757273652066697260008201527f7374000000000000000000000000000000000000000000000000000000000000602082015250565b600061254660228361246d565b9150612551826124ea565b604082019050919050565b6000602082019050818103600083015261257581612539565b9050919050565b7f436f7572736520616c726561647920636f6d706c657465640000000000000000600082015250565b60006125b260188361246d565b91506125bd8261257c565b602082019050919050565b600060208201905081810360008301526125e1816125a5565b9050919050565b7f496e73756666696369656e742072657761726420706f6f6c0000000000000000600082015250565b600061261e60188361246d565b9150612629826125e8565b602082019050919050565b6000602082019050818103600083015261264d81612611565b9050919050565b7f4e487b7100000000000000000000000000000000000000000000000000000000600052601160045260246000fd5b600061268e82612032565b915061269983612032565b92508282019050808211156126b1576126b0612654565b5b92915050565b60006126c282612032565b91506126cd83612032565b92508282039050818111156126e5576126e4612654565b5b92915050565b600060408201905061270060008301856122bc565b61270d602083018461203c565b9392505050565b61271d816121a6565b811461272857600080fd5b50565b60008151905061273a81612714565b92915050565b60006020828403121561275657612755611e99565b5b60006127648482850161272b565b91505092915050565b7f526577617264207472616e73666572206661696c656400000000000000000000600082015250565b60006127a360168361246d565b91506127ae8261276d565b602082019050919050565b600060208201905081810360008301526127d281612796565b9050919050565b60006127e4826123e5565b6127ee818561246d565b93506127fe8185602086016123fb565b61280781611ead565b840191505092915050565b6000604082019050818103600083015261282c81856127d9565b905061283b602083018461203c565b9392505050565b7f416d6f756e74206d7573742062652067726561746572207468616e2030000000600082015250565b6000612878601d8361246d565b915061288382612842565b602082019050919050565b600060208201905081810360008301526128a78161286b565b9050919050565b6000815190506128bd81612066565b92915050565b6000602082840312156128d9576128d8611e99565b5b60006128e7848285016128ae565b91505092915050565b7f496e73756666696369656e742062616c616e6365000000000000000000000000600082015250565b600061292660148361246d565b9150612931826128f0565b602082019050919050565b6000602082019050818103600083015261295581612919565b9050919050565b600060408201905061297160008301856122bc565b61297e60208301846122bc565b9392505050565b7f496e73756666696369656e7420616c6c6f77616e636500000000000000000000600082015250565b60006129bb60168361246d565b91506129c682612985565b602082019050919050565b600060208201905081810360008301526129ea816129ae565b9050919050565b6000606082019050612a0660008301866122bc565b612a1360208301856122bc565b612a20604083018461203c565b949350505050565b7f5472616e73666572206661696c65640000000000000000000000000000000000600082015250565b6000612a5e600f8361246d565b9150612a6982612a28565b602082019050919050565b60006020820190508181036000830152612a8d81612a51565b9050919050565b7f4e487b7100000000000000000000000000000000000000000000000000000000600052603260045260246000fd5b6000612ace82612032565b91507fffffffffffffffffffffffffffffffffffffffffffffffffffffffffffffffff8203612b0057612aff612654565b5b600182019050919050565b7f496e73756666696369656e74204f57432062616c616e63650000000000000000600082015250565b6000612b4160188361246d565b9150612b4c82612b0b565b602082019050919050565b60006020820190508181036000830152612b7081612b34565b9050919050565b7f546f6b656e207472616e73666572206661696c65640000000000000000000000600082015250565b6000612bad60158361246d565b9150612bb882612b77565b602082019050919050565b60006020820190508181036000830152612bdc81612ba0565b9050919050565b7f5072696365206d7573742062652067726561746572207468616e203000000000600082015250565b6000612c19601c8361246d565b9150612c2482612be3565b602082019050919050565b60006020820190508181036000830152612c4881612c0c565b9050919050565b7f436f7572736520616c7265616479206578697374730000000000000000000000600082015250565b6000612c8560158361246d565b9150612c9082612c4f565b602082019050919050565b60006020820190508181036000830152612cb481612c78565b9050919050565b7f496e73756666696369656e742072657761726420706f6f6c2062616c616e6365600082015250565b6000612cf160208361246d565b9150612cfc82612cbb565b602082019050919050565b60006020820190508181036000830152612d2081612ce4565b905091905056fea264697066735822122014c79c76328214330582c83a16b578fabdb1a6b602d14575f3c68da06a6db1ea64736f6c63430008150033",
  "immutableReferences": {},
  "source": "// SPDX-License-Identifier: MIT\npragma solidity ^0.8.0;\n\nimport \"@openzeppelin/contracts/token/ERC20/IERC20.sol\";\nimport \"@openzeppelin/contracts/access/Ownable.sol\";\n\ncontract CourseRegistry is Ownable {\n    struct Course {\n        uint256 price;\n        address creator;\n        address[] students;\n    }\n\n    IERC20 public owcToken;\n    mapping(string => Course) public courses;\n    \n    // \n    uint256 public rewardPool;  // \n    uint256 public constant COMPLETION_REWARD = 50;  //  50 OWC\n    mapping(string => mapping(address => bool)) public courseCompleted; // \n    mapping(address => uint256) public totalRewardsEarned; // \n\n    event CoursePurchased(string courseName, address indexed student, uint256 price);\n    event CourseCreated(string courseName, address indexed creator, uint256 price);\n    event CourseCompleted(string courseName, address indexed student, uint256 reward);\n    event RewardPoolFunded(address indexed funder, uint256 amount);\n    event RewardPoolWithdrawn(address indexed admin, uint256 amount);\n\n    constructor(address _owcTokenAddress) Ownable(msg.sender) {\n        owcToken = IERC20(_owcTokenAddress);\n        rewardPool = 0; // 0\n    }\n\n    function createCourse(string memory courseName, uint256 price) external {\n        require(price > 0, \"Price must be greater than 0\");\n        require(courses[courseName].price == 0, \"Course already exists\");\n\n        courses[courseName].price = price;\n        courses[courseName].creator = msg.sender;\n        courses[courseName].students.push(msg.sender);\n\n        emit CourseCreated(courseName, msg.sender, price);\n    }\n\n    function purchaseCourse(string memory courseName) external {\n        Course storage course = courses[courseName];\n        require(course.price > 0, \"Course does not exist\");\n        require(owcToken.balanceOf(msg.sender) >= course.price, \"Insufficient OWC balance\");\n        require(owcToken.allowance(msg.sender, address(this)) >= course.price, \"Insufficient allowance\");\n\n        bool success = owcToken.transferFrom(msg.sender, course.creator, course.price);\n        require(success, \"Token transfer failed\");\n        \n        course.students.push(msg.sender);\n        emit CoursePurchased(courseName, msg.sender, course.price);\n    }\n\n    function getCourseStudents(string memory courseName) external view returns (address[] memory) {\n        return courses[courseName].students;\n    }\n\n    function hasPurchased(string memory courseName, address student) external view returns (bool) {\n        address[] memory students = courses[courseName].students;\n        for (uint i = 0; i < students.length; i++) {\n            if (students[i] == student) {\n                return true;\n            }\n        }\n        return false;\n    }\n\n    function getCoursePrice(string memory courseName) external view returns (uint256) {\n        return courses[courseName].price;\n    }\n\n    function getCourseCreator(string memory courseName) external view returns (address) {\n        return courses[courseName].creator;\n    }\n\n    // \n    function fundRewardPool(uint256 amount) external onlyOwner {\n        require(amount > 0, \"Amount must be greater than 0\");\n        require(owcToken.balanceOf(msg.sender) >= amount, \"Insufficient balance\");\n        require(owcToken.allowance(msg.sender, address(this)) >= amount, \"Insufficient allowance\");\n\n        bool success = owcToken.transferFrom(msg.sender, address(this), amount);\n        require(success, \"Transfer failed\");\n\n        rewardPool += amount;\n        emit RewardPoolFunded(msg.sender, amount);\n    }\n\n    function withdrawFromRewardPool(uint256 amount) external onlyOwner {\n        require(amount > 0, \"Amount must be greater than 0\");\n        require(rewardPool >= amount, \"Insufficient reward pool balance\");\n\n        bool success = owcToken.transfer(msg.sender, amount);\n        require(success, \"Transfer failed\");\n\n        rewardPool -= amount;\n        emit RewardPoolWithdrawn(msg.sender, amount);\n    }\n\n    // \n    function completeCourse(string memory courseName) external {\n        Course storage course = courses[courseName];\n        require(course.price > 0, \"Course does not exist\");\n        require(_hasPurchased(courseName, msg.sender), \"You must purchase the course first\");\n        require(!courseCompleted[courseName][msg.sender], \"Course already completed\");\n        require(rewardPool >= COMPLETION_REWARD, \"Insufficient reward pool\");\n\n        // \n        courseCompleted[courseName][msg.sender] = true;\n        \n        // \n        totalRewardsEarned[msg.sender] += COMPLETION_REWARD;\n        \n        // \n        rewardPool -= COMPLETION_REWARD;\n        bool success = owcToken.transfer(msg.sender, COMPLETION_REWARD);\n        require(success, \"Reward transfer failed\");\n\n        emit CourseCompleted(courseName, msg.sender, COMPLETION_REWARD);\n    }\n\n    // \n    function _hasPurchased(string memory courseName, address student) internal view returns (bool) {\n        address[] memory students = courses[courseName].students;\n        for (uint i = 0; i < students.length; i++) {\n            if (students[i] == student) {\n                return true;\n            }\n        }\n        return false;\n    }\n\n    // \n    function hasCourseCompleted(string memory courseName, address student) external view returns (bool) {\n        return courseCompleted[courseName][student];\n    }\n\n    function getStudentTotalRewards(address student) external view returns (uint256) {\n        return totalRewardsEarned[student];\n    }\n\n    function getRewardPool() external view returns (uint256) {\n        return rewardPool;\n    }\n\n    function getCompletedStudents(string memory courseName) external view returns (address[] memory) {\n        Course storage course = courses[courseName];\n        address[] memory students = course.students;\n        \n        // \n        uint256 completedCount = 0;\n        for (uint i = 0; i < students.length; i++) {\n            if (courseCompleted[courseName][students[i]]) {\n                completedCount++;\n            }\n        }\n        \n        // \n        address[] memory completedStudents = new address[](completedCount);\n        uint256 index = 0;\n        for (uint i = 0; i < students.length; i++) {\n            if (courseCompleted[courseName][students[i]]) {\n                completedStudents[index] = students[i];\n                index++;\n            }\n        }\n        \n        return completedStudents;\n    }\n}",
  "sourcePath": "/Users/firebushtree/Desktop/code/yideng/web3-college/contract/contracts/CourseRegistry.sol",
  "compiler": {
    "name": "solc",
    "version": "0.8.21+commit.d9974bed.Emscripten.clang"
  },
  "schemaVersion": "3.4.16",
  "updatedAt": "2025-09-02T10:14:25.080Z",
  "networkType": "ethereum",
  "devdoc": {
    "errors": {
      "OwnableInvalidOwner(address)": [
        {
          "details": "The owner is not a valid owner account. (eg. `address(0)`)"
        }
      ],
      "OwnableUnauthorizedAccount(address)": [
        {
          "details": "The caller account is not authorized to perform an operation."
        }
      ]
    },
    "kind": "dev",
    "methods": {
      "owner()": {
        "details": "Returns the address of the current owner."
      },
      "renounceOwnership()": {
        "details": "Leaves the contract without owner. It will not be possible to call `onlyOwner` functions. Can only be called by the current owner. NOTE: Renouncing ownership will leave the contract without an owner, thereby disabling any functionality that is only available to the owner."
      },
      "transferOwnership(address)": {
        "details": "Transfers ownership of the contract to a new account (`newOwner`). Can only be called by the current owner."
      }
    },
    "version": 1
  },
  "userdoc": {
    "kind": "user",
    "methods": {},
    "version": 1
  }
}