{
  "contractName": "CourseRegistry",
  "abi": [
    {
      "inputs": [],
      "stateMutability": "nonpayable",
      "type": "constructor"
    },
    {
      "anonymous": false,
      "inputs": [
        {
          "indexed": false,
          "internalType": "string",
          "name": "courseName",
          "type": "string"
        },
        {
          "indexed": true,
          "internalType": "address",
          "name": "student",
          "type": "address"
        }
      ],
      "name": "CoursePurchased",
      "type": "event"
    },
    {
      "inputs": [
        {
          "internalType": "string",
          "name": "",
          "type": "string"
        },
        {
          "internalType": "uint256",
          "name": "",
          "type": "uint256"
        }
      ],
      "name": "coursePurchases",
      "outputs": [
        {
          "internalType": "address",
          "name": "",
          "type": "address"
        }
      ],
      "stateMutability": "view",
      "type": "function",
      "constant": true
    },
    {
      "inputs": [
        {
          "internalType": "string",
          "name": "courseName",
          "type": "string"
        }
      ],
      "name": "purchaseCourse",
      "outputs": [],
      "stateMutability": "nonpayable",
      "type": "function"
    },
    {
      "inputs": [
        {
          "internalType": "string",
          "name": "courseName",
          "type": "string"
        }
      ],
      "name": "getCourseStudents",
      "outputs": [
        {
          "internalType": "address[]",
          "name": "",
          "type": "address[]"
        }
      ],
      "stateMutability": "view",
      "type": "function",
      "constant": true
    },
    {
      "inputs": [
        {
          "internalType": "string",
          "name": "courseName",
          "type": "string"
        },
        {
          "internalType": "address",
          "name": "student",
          "type": "address"
        }
      ],
      "name": "hasPurchased",
      "outputs": [
        {
          "internalType": "bool",
          "name": "",
          "type": "bool"
        }
      ],
      "stateMutability": "view",
      "type": "function",
      "constant": true
    }
  ],
  "bytecode": "0x608060405234801561001057600080fd5b50610a25806100206000396000f3fe608060405234801561001057600080fd5b5060043610610069576000357c0100000000000000000000000000000000000000000000000000000000900480632dc6a5b81461006e57806339831eb91461009e5780634fba1577146100ce57806367589b6f146100fe575b600080fd5b610088600480360381019061008391906105de565b61011a565b6040516100959190610655565b60405180910390f35b6100b860048036038101906100b391906106a6565b610246565b6040516100c59190610711565b60405180910390f35b6100e860048036038101906100e3919061072c565b6102aa565b6040516100f59190610833565b60405180910390f35b6101186004803603810190610113919061072c565b610356565b005b60008060008460405161012d91906108c6565b90815260200160405180910390208054806020026020016040519081016040528092919081815260200182805480156101bb57602002820191906000526020600020905b8160009054906101000a900473ffffffffffffffffffffffffffffffffffffffff1673ffffffffffffffffffffffffffffffffffffffff1681526020019060010190808311610171575b5050505050905060005b8151811015610239578373ffffffffffffffffffffffffffffffffffffffff168282815181106101f8576101f76108dd565b5b602002602001015173ffffffffffffffffffffffffffffffffffffffff160361022657600192505050610240565b80806102319061093b565b9150506101c5565b5060009150505b92915050565b600082805160208101820180518482526020830160208501208183528095505050505050818154811061027857600080fd5b906000526020600020016000915091509054906101000a900473ffffffffffffffffffffffffffffffffffffffff1681565b60606000826040516102bc91906108c6565b908152602001604051809103902080548060200260200160405190810160405280929190818152602001828054801561034a57602002820191906000526020600020905b8160009054906101000a900473ffffffffffffffffffffffffffffffffffffffff1673ffffffffffffffffffffffffffffffffffffffff1681526020019060010190808311610300575b50505050509050919050565b60008160405161036691906108c6565b9081526020016040518091039020339080600181540180825580915050600190039060005260206000200160009091909190916101000a81548173ffffffffffffffffffffffffffffffffffffffff021916908373ffffffffffffffffffffffffffffffffffffffff1602179055503373ffffffffffffffffffffffffffffffffffffffff167ff3b7d2b56b5220b3d9a41160be1e2df3e57de937a5fbe0b818fe87a2ee8576f58260405161041b91906109cd565b60405180910390a250565b6000604051905090565b600080fd5b600080fd5b600080fd5b600080fd5b6000601f19601f8301169050919050565b7f4e487b7100000000000000000000000000000000000000000000000000000000600052604160045260246000fd5b61048d82610444565b810181811067ffffffffffffffff821117156104ac576104ab610455565b5b80604052505050565b60006104bf610426565b90506104cb8282610484565b919050565b600067ffffffffffffffff8211156104eb576104ea610455565b5b6104f482610444565b9050602081019050919050565b82818337600083830152505050565b600061052361051e846104d0565b6104b5565b90508281526020810184848401111561053f5761053e61043f565b5b61054a848285610501565b509392505050565b600082601f8301126105675761056661043a565b5b8135610577848260208601610510565b91505092915050565b600073ffffffffffffffffffffffffffffffffffffffff82169050919050565b60006105ab82610580565b9050919050565b6105bb816105a0565b81146105c657600080fd5b50565b6000813590506105d8816105b2565b92915050565b600080604083850312156105f5576105f4610430565b5b600083013567ffffffffffffffff81111561061357610612610435565b5b61061f85828601610552565b9250506020610630858286016105c9565b9150509250929050565b60008115159050919050565b61064f8161063a565b82525050565b600060208201905061066a6000830184610646565b92915050565b6000819050919050565b61068381610670565b811461068e57600080fd5b50565b6000813590506106a08161067a565b92915050565b600080604083850312156106bd576106bc610430565b5b600083013567ffffffffffffffff8111156106db576106da610435565b5b6106e785828601610552565b92505060206106f885828601610691565b9150509250929050565b61070b816105a0565b82525050565b60006020820190506107266000830184610702565b92915050565b60006020828403121561074257610741610430565b5b600082013567ffffffffffffffff8111156107605761075f610435565b5b61076c84828501610552565b91505092915050565b600081519050919050565b600082825260208201905092915050565b6000819050602082019050919050565b6107aa816105a0565b82525050565b60006107bc83836107a1565b60208301905092915050565b6000602082019050919050565b60006107e082610775565b6107ea8185610780565b93506107f583610791565b8060005b8381101561082657815161080d88826107b0565b9750610818836107c8565b9250506001810190506107f9565b5085935050505092915050565b6000602082019050818103600083015261084d81846107d5565b905092915050565b600081519050919050565b600081905092915050565b60005b8381101561088957808201518184015260208101905061086e565b60008484015250505050565b60006108a082610855565b6108aa8185610860565b93506108ba81856020860161086b565b80840191505092915050565b60006108d28284610895565b915081905092915050565b7f4e487b7100000000000000000000000000000000000000000000000000000000600052603260045260246000fd5b7f4e487b7100000000000000000000000000000000000000000000000000000000600052601160045260246000fd5b600061094682610670565b91507fffffffffffffffffffffffffffffffffffffffffffffffffffffffffffffffff82036109785761097761090c565b5b600182019050919050565b600082825260208201905092915050565b600061099f82610855565b6109a98185610983565b93506109b981856020860161086b565b6109c281610444565b840191505092915050565b600060208201905081810360008301526109e78184610994565b90509291505056fea264697066735822122076f23365af9cf1a1419762588c4c6a0f1ee37ab5c20c4ee9b69389aff780065f64736f6c63430008150033",
  "immutableReferences": {},
  "source": "// SPDX-License-Identifier: MIT\npragma solidity ^0.8.0;\n\ncontract CourseRegistry {\n    mapping(string => address[]) public coursePurchases;\n\n    event CoursePurchased(string courseName, address indexed student);\n\n    constructor() {\n    }\n\n    function purchaseCourse(string memory courseName) external {\n        coursePurchases[courseName].push(msg.sender);\n        emit CoursePurchased(courseName, msg.sender);\n    }\n\n    function getCourseStudents(string memory courseName) external view returns (address[] memory) {\n        return coursePurchases[courseName];\n    }\n\n    function hasPurchased(string memory courseName, address student) external view returns (bool) {\n        address[] memory students = coursePurchases[courseName];\n        for (uint i = 0; i < students.length; i++) {\n            if (students[i] == student) {\n                return true;\n            }\n        }\n        return false;\n    }\n}",
  "sourcePath": "/Users/firebushtree/Desktop/code/yideng/web3-college/contract/contracts/CourseRegistry.sol",
  "compiler": {
    "name": "solc",
    "version": "0.8.21+commit.d9974bed.Emscripten.clang"
  },
  "schemaVersion": "3.4.16",
  "updatedAt": "2025-09-01T06:27:02.937Z",
  "networkType": "ethereum",
  "devdoc": {
    "kind": "dev",
    "methods": {},
    "version": 1
  },
  "userdoc": {
    "kind": "user",
    "methods": {},
    "version": 1
  }
}