{
  "contractName": "OWCToken",
  "abi": [
    {
      "inputs": [],
      "stateMutability": "nonpayable",
      "type": "constructor"
    },
    {
      "inputs": [
        {
          "internalType": "address",
          "name": "spender",
          "type": "address"
        },
        {
          "internalType": "uint256",
          "name": "allowance",
          "type": "uint256"
        },
        {
          "internalType": "uint256",
          "name": "needed",
          "type": "uint256"
        }
      ],
      "name": "ERC20InsufficientAllowance",
      "type": "error"
    },
    {
      "inputs": [
        {
          "internalType": "address",
          "name": "sender",
          "type": "address"
        },
        {
          "internalType": "uint256",
          "name": "balance",
          "type": "uint256"
        },
        {
          "internalType": "uint256",
          "name": "needed",
          "type": "uint256"
        }
      ],
      "name": "ERC20InsufficientBalance",
      "type": "error"
    },
    {
      "inputs": [
        {
          "internalType": "address",
          "name": "approver",
          "type": "address"
        }
      ],
      "name": "ERC20InvalidApprover",
      "type": "error"
    },
    {
      "inputs": [
        {
          "internalType": "address",
          "name": "receiver",
          "type": "address"
        }
      ],
      "name": "ERC20InvalidReceiver",
      "type": "error"
    },
    {
      "inputs": [
        {
          "internalType": "address",
          "name": "sender",
          "type": "address"
        }
      ],
      "name": "ERC20InvalidSender",
      "type": "error"
    },
    {
      "inputs": [
        {
          "internalType": "address",
          "name": "spender",
          "type": "address"
        }
      ],
      "name": "ERC20InvalidSpender",
      "type": "error"
    },
    {
      "inputs": [
        {
          "internalType": "address",
          "name": "owner",
          "type": "address"
        }
      ],
      "name": "OwnableInvalidOwner",
      "type": "error"
    },
    {
      "inputs": [
        {
          "internalType": "address",
          "name": "account",
          "type": "address"
        }
      ],
      "name": "OwnableUnauthorizedAccount",
      "type": "error"
    },
    {
      "anonymous": false,
      "inputs": [
        {
          "indexed": true,
          "internalType": "address",
          "name": "owner",
          "type": "address"
        },
        {
          "indexed": true,
          "internalType": "address",
          "name": "spender",
          "type": "address"
        },
        {
          "indexed": false,
          "internalType": "uint256",
          "name": "value",
          "type": "uint256"
        }
      ],
      "name": "Approval",
      "type": "event"
    },
    {
      "anonymous": false,
      "inputs": [
        {
          "indexed": true,
          "internalType": "address",
          "name": "previousOwner",
          "type": "address"
        },
        {
          "indexed": true,
          "internalType": "address",
          "name": "newOwner",
          "type": "address"
        }
      ],
      "name": "OwnershipTransferred",
      "type": "event"
    },
    {
      "anonymous": false,
      "inputs": [
        {
          "indexed": true,
          "internalType": "address",
          "name": "from",
          "type": "address"
        },
        {
          "indexed": true,
          "internalType": "address",
          "name": "to",
          "type": "address"
        },
        {
          "indexed": false,
          "internalType": "uint256",
          "name": "value",
          "type": "uint256"
        }
      ],
      "name": "Transfer",
      "type": "event"
    },
    {
      "inputs": [
        {
          "internalType": "address",
          "name": "owner",
          "type": "address"
        },
        {
          "internalType": "address",
          "name": "spender",
          "type": "address"
        }
      ],
      "name": "allowance",
      "outputs": [
        {
          "internalType": "uint256",
          "name": "",
          "type": "uint256"
        }
      ],
      "stateMutability": "view",
      "type": "function",
      "constant": true
    },
    {
      "inputs": [
        {
          "internalType": "address",
          "name": "spender",
          "type": "address"
        },
        {
          "internalType": "uint256",
          "name": "value",
          "type": "uint256"
        }
      ],
      "name": "approve",
      "outputs": [
        {
          "internalType": "bool",
          "name": "",
          "type": "bool"
        }
      ],
      "stateMutability": "nonpayable",
      "type": "function"
    },
    {
      "inputs": [
        {
          "internalType": "address",
          "name": "account",
          "type": "address"
        }
      ],
      "name": "balanceOf",
      "outputs": [
        {
          "internalType": "uint256",
          "name": "",
          "type": "uint256"
        }
      ],
      "stateMutability": "view",
      "type": "function",
      "constant": true
    },
    {
      "inputs": [],
      "name": "decimals",
      "outputs": [
        {
          "internalType": "uint8",
          "name": "",
          "type": "uint8"
        }
      ],
      "stateMutability": "view",
      "type": "function",
      "constant": true
    },
    {
      "inputs": [],
      "name": "name",
      "outputs": [
        {
          "internalType": "string",
          "name": "",
          "type": "string"
        }
      ],
      "stateMutability": "view",
      "type": "function",
      "constant": true
    },
    {
      "inputs": [],
      "name": "owner",
      "outputs": [
        {
          "internalType": "address",
          "name": "",
          "type": "address"
        }
      ],
      "stateMutability": "view",
      "type": "function",
      "constant": true
    },
    {
      "inputs": [],
      "name": "rate",
      "outputs": [
        {
          "internalType": "uint256",
          "name": "",
          "type": "uint256"
        }
      ],
      "stateMutability": "view",
      "type": "function",
      "constant": true
    },
    {
      "inputs": [],
      "name": "renounceOwnership",
      "outputs": [],
      "stateMutability": "nonpayable",
      "type": "function"
    },
    {
      "inputs": [],
      "name": "symbol",
      "outputs": [
        {
          "internalType": "string",
          "name": "",
          "type": "string"
        }
      ],
      "stateMutability": "view",
      "type": "function",
      "constant": true
    },
    {
      "inputs": [],
      "name": "totalSupply",
      "outputs": [
        {
          "internalType": "uint256",
          "name": "",
          "type": "uint256"
        }
      ],
      "stateMutability": "view",
      "type": "function",
      "constant": true
    },
    {
      "inputs": [
        {
          "internalType": "address",
          "name": "to",
          "type": "address"
        },
        {
          "internalType": "uint256",
          "name": "value",
          "type": "uint256"
        }
      ],
      "name": "transfer",
      "outputs": [
        {
          "internalType": "bool",
          "name": "",
          "type": "bool"
        }
      ],
      "stateMutability": "nonpayable",
      "type": "function"
    },
    {
      "inputs": [
        {
          "internalType": "address",
          "name": "from",
          "type": "address"
        },
        {
          "internalType": "address",
          "name": "to",
          "type": "address"
        },
        {
          "internalType": "uint256",
          "name": "value",
          "type": "uint256"
        }
      ],
      "name": "transferFrom",
      "outputs": [
        {
          "internalType": "bool",
          "name": "",
          "type": "bool"
        }
      ],
      "stateMutability": "nonpayable",
      "type": "function"
    },
    {
      "inputs": [
        {
          "internalType": "address",
          "name": "newOwner",
          "type": "address"
        }
      ],
      "name": "transferOwnership",
      "outputs": [],
      "stateMutability": "nonpayable",
      "type": "function"
    },
    {
      "inputs": [],
      "name": "buyTokens",
      "outputs": [],
      "stateMutability": "payable",
      "type": "function",
      "payable": true
    },
    {
      "inputs": [
        {
          "internalType": "uint256",
          "name": "tokenAmount",
          "type": "uint256"
        }
      ],
      "name": "sellTokens",
      "outputs": [],
      "stateMutability": "nonpayable",
      "type": "function"
    },
    {
      "inputs": [
        {
          "internalType": "address",
          "name": "to",
          "type": "address"
        },
        {
          "internalType": "uint256",
          "name": "amount",
          "type": "uint256"
        }
      ],
      "name": "mint",
      "outputs": [],
      "stateMutability": "nonpayable",
      "type": "function"
    },
    {
      "inputs": [
        {
          "internalType": "uint256",
          "name": "amount",
          "type": "uint256"
        }
      ],
      "name": "burn",
      "outputs": [],
      "stateMutability": "nonpayable",
      "type": "function"
    },
    {
      "inputs": [],
      "name": "withdrawETH",
      "outputs": [],
      "stateMutability": "nonpayable",
      "type": "function"
    },
    {
      "inputs": [
        {
          "internalType": "address",
          "name": "account",
          "type": "address"
        },
        {
          "internalType": "uint256",
          "name": "amount",
          "type": "uint256"
        }
      ],
      "name": "burnFrom",
      "outputs": [],
      "stateMutability": "nonpayable",
      "type": "function"
    }
  ],
  "bytecode": "0x60806040523480156200001157600080fd5b50336040518060400160405280600381526020017f4f574300000000000000000000000000000000000000000000000000000000008152506040518060400160405280600281526020017f4f570000000000000000000000000000000000000000000000000000000000008152508160039081620000909190620007aa565b508060049081620000a29190620007aa565b505050600073ffffffffffffffffffffffffffffffffffffffff168173ffffffffffffffffffffffffffffffffffffffff16036200011a5760006040517f1e4fbdf7000000000000000000000000000000000000000000000000000000008152600401620001119190620008d6565b60405180910390fd5b620001348162000195640100000000026401000000009004565b506113886006819055506200018f336200015c6200025b640100000000026401000000009004565b600a6200016a919062000a83565b620f42406200017a919062000ad4565b62000264640100000000026401000000009004565b62000bc5565b6000600560009054906101000a900473ffffffffffffffffffffffffffffffffffffffff16905081600560006101000a81548173ffffffffffffffffffffffffffffffffffffffff021916908373ffffffffffffffffffffffffffffffffffffffff1602179055508173ffffffffffffffffffffffffffffffffffffffff168173ffffffffffffffffffffffffffffffffffffffff167f8be0079c531659141344cd1fd0a4f28419497f9722a3daafe3b4186f6b6457e060405160405180910390a35050565b60006012905090565b600073ffffffffffffffffffffffffffffffffffffffff168273ffffffffffffffffffffffffffffffffffffffff1603620002d95760006040517fec442f05000000000000000000000000000000000000000000000000000000008152600401620002d09190620008d6565b60405180910390fd5b620002f660008383620002fa640100000000026401000000009004565b5050565b600073ffffffffffffffffffffffffffffffffffffffff168373ffffffffffffffffffffffffffffffffffffffff16036200035057806002600082825462000343919062000b1f565b9250508190555062000426565b60008060008573ffffffffffffffffffffffffffffffffffffffff1673ffffffffffffffffffffffffffffffffffffffff16815260200190815260200160002054905081811015620003df578381836040517fe450d38c000000000000000000000000000000000000000000000000000000008152600401620003d69392919062000b6b565b60405180910390fd5b8181036000808673ffffffffffffffffffffffffffffffffffffffff1673ffffffffffffffffffffffffffffffffffffffff16815260200190815260200160002081905550505b600073ffffffffffffffffffffffffffffffffffffffff168273ffffffffffffffffffffffffffffffffffffffff1603620004715780600260008282540392505081905550620004be565b806000808473ffffffffffffffffffffffffffffffffffffffff1673ffffffffffffffffffffffffffffffffffffffff168152602001908152602001600020600082825401925050819055505b8173ffffffffffffffffffffffffffffffffffffffff168373ffffffffffffffffffffffffffffffffffffffff167fddf252ad1be2c89b69c2b068fc378daa952ba7f163c4a11628f55a4df523b3ef836040516200051d919062000ba8565b60405180910390a3505050565b600081519050919050565b7f4e487b7100000000000000000000000000000000000000000000000000000000600052604160045260246000fd5b7f4e487b7100000000000000000000000000000000000000000000000000000000600052602260045260246000fd5b60006002820490506001821680620005ac57607f821691505b602082108103620005c257620005c162000564565b5b50919050565b60008190508160005260206000209050919050565b60006020601f8301049050919050565b60008160020a8302905092915050565b6000600883026200062f7fffffffffffffffffffffffffffffffffffffffffffffffffffffffffffffffff82620005ed565b6200063b8683620005ed565b95508019841693508086168417925050509392505050565b6000819050919050565b6000819050919050565b600062000688620006826200067c8462000653565b6200065d565b62000653565b9050919050565b6000819050919050565b620006a48362000667565b620006bc620006b3826200068f565b848454620005fd565b825550505050565b600090565b620006d3620006c4565b620006e081848462000699565b505050565b5b818110156200070857620006fc600082620006c9565b600181019050620006e6565b5050565b601f82111562000757576200072181620005c8565b6200072c84620005dd565b810160208510156200073c578190505b620007546200074b85620005dd565b830182620006e5565b50505b505050565b60008160020a8304905092915050565b60006200077f600019846008026200075c565b1980831691505092915050565b60006200079a83836200076c565b9150826002028217905092915050565b620007b5826200052a565b67ffffffffffffffff811115620007d157620007d062000535565b5b620007dd825462000593565b620007ea8282856200070c565b600060209050601f8311600181146200082257600084156200080d578287015190505b6200081985826200078c565b86555062000889565b601f1984166200083286620005c8565b60005b828110156200085c5784890151825560018201915060208501945060208101905062000835565b868310156200087c578489015162000878601f8916826200076c565b8355505b6001600288020188555050505b505050505050565b600073ffffffffffffffffffffffffffffffffffffffff82169050919050565b6000620008be8262000891565b9050919050565b620008d081620008b1565b82525050565b6000602082019050620008ed6000830184620008c5565b92915050565b7f4e487b7100000000000000000000000000000000000000000000000000000000600052601160045260246000fd5b6000600282049050919050565b6000808291508390505b60018511156200098157808604811115620009595762000958620008f3565b5b6001851615620009695780820291505b8081029050620009798562000922565b945062000939565b94509492505050565b6000826200099c576001905062000a6f565b81620009ac576000905062000a6f565b8160018114620009c55760028114620009d05762000a06565b600191505062000a6f565b60ff841115620009e557620009e4620008f3565b5b8360020a915084821115620009ff57620009fe620008f3565b5b5062000a6f565b5060208310610133831016604e8410600b841016171562000a405782820a90508381111562000a3a5762000a39620008f3565b5b62000a6f565b62000a4f84848460016200092f565b9250905081840481111562000a695762000a68620008f3565b5b81810290505b9392505050565b600060ff82169050919050565b600062000a908262000653565b915062000a9d8362000a76565b925062000acc7fffffffffffffffffffffffffffffffffffffffffffffffffffffffffffffffff84846200098a565b905092915050565b600062000ae18262000653565b915062000aee8362000653565b925082820262000afe8162000653565b9150828204841483151762000b185762000b17620008f3565b5b5092915050565b600062000b2c8262000653565b915062000b398362000653565b925082820190508082111562000b545762000b53620008f3565b5b92915050565b62000b658162000653565b82525050565b600060608201905062000b826000830186620008c5565b62000b91602083018562000b5a565b62000ba0604083018462000b5a565b949350505050565b600060208201905062000bbf600083018462000b5a565b92915050565b6119ca8062000bd56000396000f3fe608060405260043610610131576000357c01000000000000000000000000000000000000000000000000000000009004806370a08231116100bd578063a9059cbb11610081578063a9059cbb146103aa578063d0febe4c146103e7578063dd62ed3e146103f1578063e086e5ec1461042e578063f2fde38b1461044557610131565b806370a08231146102d7578063715018a61461031457806379cc67901461032b5780638da5cb5b1461035457806395d89b411461037f57610131565b80632c4e722e116101045780632c4e722e14610206578063313ce5671461023157806340c10f191461025c57806342966c68146102855780636c11bcd3146102ae57610131565b806306fdde0314610136578063095ea7b31461016157806318160ddd1461019e57806323b872dd146101c9575b600080fd5b34801561014257600080fd5b5061014b61046e565b6040516101589190611333565b60405180910390f35b34801561016d57600080fd5b50610188600480360381019061018391906113ee565b610500565b6040516101959190611449565b60405180910390f35b3480156101aa57600080fd5b506101b3610523565b6040516101c09190611473565b60405180910390f35b3480156101d557600080fd5b506101f060048036038101906101eb919061148e565b61052d565b6040516101fd9190611449565b60405180910390f35b34801561021257600080fd5b5061021b61055c565b6040516102289190611473565b60405180910390f35b34801561023d57600080fd5b50610246610562565b60405161025391906114fd565b60405180910390f35b34801561026857600080fd5b50610283600480360381019061027e91906113ee565b61056b565b005b34801561029157600080fd5b506102ac60048036038101906102a79190611518565b610581565b005b3480156102ba57600080fd5b506102d560048036038101906102d09190611518565b61058e565b005b3480156102e357600080fd5b506102fe60048036038101906102f99190611545565b6106de565b60405161030b9190611473565b60405180910390f35b34801561032057600080fd5b50610329610726565b005b34801561033757600080fd5b50610352600480360381019061034d91906113ee565b61073a565b005b34801561036057600080fd5b50610369610753565b6040516103769190611581565b60405180910390f35b34801561038b57600080fd5b5061039461077d565b6040516103a19190611333565b60405180910390f35b3480156103b657600080fd5b506103d160048036038101906103cc91906113ee565b61080f565b6040516103de9190611449565b60405180910390f35b6103ef610832565b005b3480156103fd57600080fd5b506104186004803603810190610413919061159c565b6108ee565b6040516104259190611473565b60405180910390f35b34801561043a57600080fd5b50610443610975565b005b34801561045157600080fd5b5061046c60048036038101906104679190611545565b610a2d565b005b60606003805461047d9061160b565b80601f01602080910402602001604051908101604052809291908181526020018280546104a99061160b565b80156104f65780601f106104cb576101008083540402835291602001916104f6565b820191906000526020600020905b8154815290600101906020018083116104d957829003601f168201915b5050505050905090565b60008061050b610ab3565b9050610518818585610abb565b600191505092915050565b6000600254905090565b600080610538610ab3565b9050610545858285610acd565b610550858585610b62565b60019150509392505050565b60065481565b60006012905090565b610573610c56565b61057d8282610cdd565b5050565b61058b3382610d5f565b50565b600081116105d1576040517f08c379a00000000000000000000000000000000000000000000000000000000081526004016105c890611688565b60405180910390fd5b806105db336106de565b101561061c576040517f08c379a0000000000000000000000000000000000000000000000000000000008152600401610613906116f4565b60405180910390fd5b60006006548261062c9190611772565b9050803073ffffffffffffffffffffffffffffffffffffffff16311015610688576040517f08c379a000000000000000000000000000000000000000000000000000000000815260040161067f906117ef565b60405180910390fd5b610693333084610b62565b3373ffffffffffffffffffffffffffffffffffffffff166108fc829081150290604051600060405180830381858888f193505050501580156106d9573d6000803e3d6000fd5b505050565b60008060008373ffffffffffffffffffffffffffffffffffffffff1673ffffffffffffffffffffffffffffffffffffffff168152602001908152602001600020549050919050565b61072e610c56565b6107386000610de1565b565b610745823383610acd565b61074f8282610d5f565b5050565b6000600560009054906101000a900473ffffffffffffffffffffffffffffffffffffffff16905090565b60606004805461078c9061160b565b80601f01602080910402602001604051908101604052809291908181526020018280546107b89061160b565b80156108055780601f106107da57610100808354040283529160200191610805565b820191906000526020600020905b8154815290600101906020018083116107e857829003601f168201915b5050505050905090565b60008061081a610ab3565b9050610827818585610b62565b600191505092915050565b60003411610875576040517f08c379a000000000000000000000000000000000000000000000000000000000815260040161086c9061185b565b60405180910390fd5b600060065434610885919061187b565b905080610898610893610753565b6106de565b10156108d9576040517f08c379a00000000000000000000000000000000000000000000000000000000081526004016108d0906116f4565b60405180910390fd5b6108eb6108e4610753565b3383610b62565b50565b6000600160008473ffffffffffffffffffffffffffffffffffffffff1673ffffffffffffffffffffffffffffffffffffffff16815260200190815260200160002060008373ffffffffffffffffffffffffffffffffffffffff1673ffffffffffffffffffffffffffffffffffffffff16815260200190815260200160002054905092915050565b61097d610c56565b60003073ffffffffffffffffffffffffffffffffffffffff16319050600081116109dc576040517f08c379a00000000000000000000000000000000000000000000000000000000081526004016109d390611909565b60405180910390fd5b6109e4610753565b73ffffffffffffffffffffffffffffffffffffffff166108fc829081150290604051600060405180830381858888f19350505050158015610a29573d6000803e3d6000fd5b5050565b610a35610c56565b600073ffffffffffffffffffffffffffffffffffffffff168173ffffffffffffffffffffffffffffffffffffffff1603610aa75760006040517f1e4fbdf7000000000000000000000000000000000000000000000000000000008152600401610a9e9190611581565b60405180910390fd5b610ab081610de1565b50565b600033905090565b610ac88383836001610ea7565b505050565b6000610ad984846108ee565b90507fffffffffffffffffffffffffffffffffffffffffffffffffffffffffffffffff811015610b5c5781811015610b4c578281836040517ffb8f41b2000000000000000000000000000000000000000000000000000000008152600401610b4393929190611929565b60405180910390fd5b610b5b84848484036000610ea7565b5b50505050565b600073ffffffffffffffffffffffffffffffffffffffff168373ffffffffffffffffffffffffffffffffffffffff1603610bd45760006040517f96c6fd1e000000000000000000000000000000000000000000000000000000008152600401610bcb9190611581565b60405180910390fd5b600073ffffffffffffffffffffffffffffffffffffffff168273ffffffffffffffffffffffffffffffffffffffff1603610c465760006040517fec442f05000000000000000000000000000000000000000000000000000000008152600401610c3d9190611581565b60405180910390fd5b610c5183838361107e565b505050565b610c5e610ab3565b73ffffffffffffffffffffffffffffffffffffffff16610c7c610753565b73ffffffffffffffffffffffffffffffffffffffff1614610cdb57610c9f610ab3565b6040517f118cdaa7000000000000000000000000000000000000000000000000000000008152600401610cd29190611581565b60405180910390fd5b565b600073ffffffffffffffffffffffffffffffffffffffff168273ffffffffffffffffffffffffffffffffffffffff1603610d4f5760006040517fec442f05000000000000000000000000000000000000000000000000000000008152600401610d469190611581565b60405180910390fd5b610d5b6000838361107e565b5050565b600073ffffffffffffffffffffffffffffffffffffffff168273ffffffffffffffffffffffffffffffffffffffff1603610dd15760006040517f96c6fd1e000000000000000000000000000000000000000000000000000000008152600401610dc89190611581565b60405180910390fd5b610ddd8260008361107e565b5050565b6000600560009054906101000a900473ffffffffffffffffffffffffffffffffffffffff16905081600560006101000a81548173ffffffffffffffffffffffffffffffffffffffff021916908373ffffffffffffffffffffffffffffffffffffffff1602179055508173ffffffffffffffffffffffffffffffffffffffff168173ffffffffffffffffffffffffffffffffffffffff167f8be0079c531659141344cd1fd0a4f28419497f9722a3daafe3b4186f6b6457e060405160405180910390a35050565b600073ffffffffffffffffffffffffffffffffffffffff168473ffffffffffffffffffffffffffffffffffffffff1603610f195760006040517fe602df05000000000000000000000000000000000000000000000000000000008152600401610f109190611581565b60405180910390fd5b600073ffffffffffffffffffffffffffffffffffffffff168373ffffffffffffffffffffffffffffffffffffffff1603610f8b5760006040517f94280d62000000000000000000000000000000000000000000000000000000008152600401610f829190611581565b60405180910390fd5b81600160008673ffffffffffffffffffffffffffffffffffffffff1673ffffffffffffffffffffffffffffffffffffffff16815260200190815260200160002060008573ffffffffffffffffffffffffffffffffffffffff1673ffffffffffffffffffffffffffffffffffffffff168152602001908152602001600020819055508015611078578273ffffffffffffffffffffffffffffffffffffffff168473ffffffffffffffffffffffffffffffffffffffff167f8c5be1e5ebec7d5bd14f71427d1e84f3dd0314c0f7b2291e5b200ac8c7c3b9258460405161106f9190611473565b60405180910390a35b50505050565b600073ffffffffffffffffffffffffffffffffffffffff168373ffffffffffffffffffffffffffffffffffffffff16036110d05780600260008282546110c49190611960565b925050819055506111a3565b60008060008573ffffffffffffffffffffffffffffffffffffffff1673ffffffffffffffffffffffffffffffffffffffff1681526020019081526020016000205490508181101561115c578381836040517fe450d38c00000000000000000000000000000000000000000000000000000000815260040161115393929190611929565b60405180910390fd5b8181036000808673ffffffffffffffffffffffffffffffffffffffff1673ffffffffffffffffffffffffffffffffffffffff16815260200190815260200160002081905550505b600073ffffffffffffffffffffffffffffffffffffffff168273ffffffffffffffffffffffffffffffffffffffff16036111ec5780600260008282540392505081905550611239565b806000808473ffffffffffffffffffffffffffffffffffffffff1673ffffffffffffffffffffffffffffffffffffffff168152602001908152602001600020600082825401925050819055505b8173ffffffffffffffffffffffffffffffffffffffff168373ffffffffffffffffffffffffffffffffffffffff167fddf252ad1be2c89b69c2b068fc378daa952ba7f163c4a11628f55a4df523b3ef836040516112969190611473565b60405180910390a3505050565b600081519050919050565b600082825260208201905092915050565b60005b838110156112dd5780820151818401526020810190506112c2565b60008484015250505050565b6000601f19601f8301169050919050565b6000611305826112a3565b61130f81856112ae565b935061131f8185602086016112bf565b611328816112e9565b840191505092915050565b6000602082019050818103600083015261134d81846112fa565b905092915050565b600080fd5b600073ffffffffffffffffffffffffffffffffffffffff82169050919050565b60006113858261135a565b9050919050565b6113958161137a565b81146113a057600080fd5b50565b6000813590506113b28161138c565b92915050565b6000819050919050565b6113cb816113b8565b81146113d657600080fd5b50565b6000813590506113e8816113c2565b92915050565b6000806040838503121561140557611404611355565b5b6000611413858286016113a3565b9250506020611424858286016113d9565b9150509250929050565b60008115159050919050565b6114438161142e565b82525050565b600060208201905061145e600083018461143a565b92915050565b61146d816113b8565b82525050565b60006020820190506114886000830184611464565b92915050565b6000806000606084860312156114a7576114a6611355565b5b60006114b5868287016113a3565b93505060206114c6868287016113a3565b92505060406114d7868287016113d9565b9150509250925092565b600060ff82169050919050565b6114f7816114e1565b82525050565b600060208201905061151260008301846114ee565b92915050565b60006020828403121561152e5761152d611355565b5b600061153c848285016113d9565b91505092915050565b60006020828403121561155b5761155a611355565b5b6000611569848285016113a3565b91505092915050565b61157b8161137a565b82525050565b60006020820190506115966000830184611572565b92915050565b600080604083850312156115b3576115b2611355565b5b60006115c1858286016113a3565b92505060206115d2858286016113a3565b9150509250929050565b7f4e487b7100000000000000000000000000000000000000000000000000000000600052602260045260246000fd5b6000600282049050600182168061162357607f821691505b602082108103611636576116356115dc565b5b50919050565b7f5370656369667920746f6b656e20616d6f756e74000000000000000000000000600082015250565b60006116726014836112ae565b915061167d8261163c565b602082019050919050565b600060208201905081810360008301526116a181611665565b9050919050565b7f4e6f7420656e6f75676820746f6b656e73000000000000000000000000000000600082015250565b60006116de6011836112ae565b91506116e9826116a8565b602082019050919050565b6000602082019050818103600083015261170d816116d1565b9050919050565b7f4e487b7100000000000000000000000000000000000000000000000000000000600052601260045260246000fd5b7f4e487b7100000000000000000000000000000000000000000000000000000000600052601160045260246000fd5b600061177d826113b8565b9150611788836113b8565b92508261179857611797611714565b5b828204905092915050565b7f4e6f7420656e6f75676820455448000000000000000000000000000000000000600082015250565b60006117d9600e836112ae565b91506117e4826117a3565b602082019050919050565b60006020820190508181036000830152611808816117cc565b9050919050565b7f53656e642045544820746f2062757920746f6b656e7300000000000000000000600082015250565b60006118456016836112ae565b91506118508261180f565b602082019050919050565b6000602082019050818103600083015261187481611838565b9050919050565b6000611886826113b8565b9150611891836113b8565b925082820261189f816113b8565b915082820484148315176118b6576118b5611743565b5b5092915050565b7f4e6f2045544820746f2077697468647261770000000000000000000000000000600082015250565b60006118f36012836112ae565b91506118fe826118bd565b602082019050919050565b60006020820190508181036000830152611922816118e6565b9050919050565b600060608201905061193e6000830186611572565b61194b6020830185611464565b6119586040830184611464565b949350505050565b600061196b826113b8565b9150611976836113b8565b925082820190508082111561198e5761198d611743565b5b9291505056fea26469706673582212203218c40200b639fb19e1f9367a750b0b1c8e4b7e34e006e50b4389cfb16fda1c64736f6c63430008150033",
  "immutableReferences": {},
  "source": "// SPDX-License-Identifier: MIT\npragma solidity ^0.8.0;\n\nimport \"@openzeppelin/contracts/token/ERC20/ERC20.sol\";\nimport \"@openzeppelin/contracts/access/Ownable.sol\";\n\ncontract OWCToken is ERC20, Ownable {\n    uint256 public rate;\n\n    constructor() ERC20(\"OWC\", \"OW\") Ownable(msg.sender) {\n        rate = 5000;\n        _mint(msg.sender, 1000000 * 10**decimals());\n    }\n\n    function buyTokens() external payable {\n        require(msg.value > 0, \"Send ETH to buy tokens\");\n        uint256 tokenAmount = msg.value * rate;\n        require(balanceOf(owner()) >= tokenAmount, \"Not enough tokens\");\n        _transfer(owner(), msg.sender, tokenAmount);\n    }\n\n    function sellTokens(uint256 tokenAmount) external {\n        require(tokenAmount > 0, \"Specify token amount\");\n        require(balanceOf(msg.sender) >= tokenAmount, \"Not enough tokens\");\n\n        uint256 ethAmount = tokenAmount / rate;\n        require(address(this).balance >= ethAmount, \"Not enough ETH\");\n\n        _transfer(msg.sender, address(this), tokenAmount);\n        payable(msg.sender).transfer(ethAmount);\n    }\n\n    function mint(address to, uint256 amount) public onlyOwner {\n        _mint(to, amount);\n    }\n\n    function burn(uint256 amount) public {\n        _burn(msg.sender, amount);\n    }\n\n    function withdrawETH() external onlyOwner {\n        uint256 balance = address(this).balance;\n        require(balance > 0, \"No ETH to withdraw\");\n        payable(owner()).transfer(balance);\n    }\n\n    function burnFrom(address account, uint256 amount) public {\n        _spendAllowance(account, msg.sender, amount);\n        _burn(account, amount);\n    }\n}",
  "sourcePath": "/Users/firebushtree/Desktop/code/yideng/web3-college/contract/contracts/OWCToken.sol",
  "compiler": {
    "name": "solc",
    "version": "0.8.21+commit.d9974bed.Emscripten.clang"
  },
  "schemaVersion": "3.4.16",
  "updatedAt": "2025-09-01T06:27:02.842Z",
  "networkType": "ethereum",
  "devdoc": {
    "errors": {
      "ERC20InsufficientAllowance(address,uint256,uint256)": [
        {
          "details": "Indicates a failure with the `spender`s `allowance`. Used in transfers.",
          "params": {
            "allowance": "Amount of tokens a `spender` is allowed to operate with.",
            "needed": "Minimum amount required to perform a transfer.",
            "spender": "Address that may be allowed to operate on tokens without being their owner."
          }
        }
      ],
      "ERC20InsufficientBalance(address,uint256,uint256)": [
        {
          "details": "Indicates an error related to the current `balance` of a `sender`. Used in transfers.",
          "params": {
            "balance": "Current balance for the interacting account.",
            "needed": "Minimum amount required to perform a transfer.",
            "sender": "Address whose tokens are being transferred."
          }
        }
      ],
      "ERC20InvalidApprover(address)": [
        {
          "details": "Indicates a failure with the `approver` of a token to be approved. Used in approvals.",
          "params": {
            "approver": "Address initiating an approval operation."
          }
        }
      ],
      "ERC20InvalidReceiver(address)": [
        {
          "details": "Indicates a failure with the token `receiver`. Used in transfers.",
          "params": {
            "receiver": "Address to which tokens are being transferred."
          }
        }
      ],
      "ERC20InvalidSender(address)": [
        {
          "details": "Indicates a failure with the token `sender`. Used in transfers.",
          "params": {
            "sender": "Address whose tokens are being transferred."
          }
        }
      ],
      "ERC20InvalidSpender(address)": [
        {
          "details": "Indicates a failure with the `spender` to be approved. Used in approvals.",
          "params": {
            "spender": "Address that may be allowed to operate on tokens without being their owner."
          }
        }
      ],
      "OwnableInvalidOwner(address)": [
        {
          "details": "The owner is not a valid owner account. (eg. `address(0)`)"
        }
      ],
      "OwnableUnauthorizedAccount(address)": [
        {
          "details": "The caller account is not authorized to perform an operation."
        }
      ]
    },
    "events": {
      "Approval(address,address,uint256)": {
        "details": "Emitted when the allowance of a `spender` for an `owner` is set by a call to {approve}. `value` is the new allowance."
      },
      "Transfer(address,address,uint256)": {
        "details": "Emitted when `value` tokens are moved from one account (`from`) to another (`to`). Note that `value` may be zero."
      }
    },
    "kind": "dev",
    "methods": {
      "allowance(address,address)": {
        "details": "Returns the remaining number of tokens that `spender` will be allowed to spend on behalf of `owner` through {transferFrom}. This is zero by default. This value changes when {approve} or {transferFrom} are called."
      },
      "approve(address,uint256)": {
        "details": "See {IERC20-approve}. NOTE: If `value` is the maximum `uint256`, the allowance is not updated on `transferFrom`. This is semantically equivalent to an infinite approval. Requirements: - `spender` cannot be the zero address."
      },
      "balanceOf(address)": {
        "details": "Returns the value of tokens owned by `account`."
      },
      "decimals()": {
        "details": "Returns the number of decimals used to get its user representation. For example, if `decimals` equals `2`, a balance of `505` tokens should be displayed to a user as `5.05` (`505 / 10 ** 2`). Tokens usually opt for a value of 18, imitating the relationship between Ether and Wei. This is the default value returned by this function, unless it's overridden. NOTE: This information is only used for _display_ purposes: it in no way affects any of the arithmetic of the contract, including {IERC20-balanceOf} and {IERC20-transfer}."
      },
      "name()": {
        "details": "Returns the name of the token."
      },
      "owner()": {
        "details": "Returns the address of the current owner."
      },
      "renounceOwnership()": {
        "details": "Leaves the contract without owner. It will not be possible to call `onlyOwner` functions. Can only be called by the current owner. NOTE: Renouncing ownership will leave the contract without an owner, thereby disabling any functionality that is only available to the owner."
      },
      "symbol()": {
        "details": "Returns the symbol of the token, usually a shorter version of the name."
      },
      "totalSupply()": {
        "details": "Returns the value of tokens in existence."
      },
      "transfer(address,uint256)": {
        "details": "See {IERC20-transfer}. Requirements: - `to` cannot be the zero address. - the caller must have a balance of at least `value`."
      },
      "transferFrom(address,address,uint256)": {
        "details": "See {IERC20-transferFrom}. Skips emitting an {Approval} event indicating an allowance update. This is not required by the ERC. See {xref-ERC20-_approve-address-address-uint256-bool-}[_approve]. NOTE: Does not update the allowance if the current allowance is the maximum `uint256`. Requirements: - `from` and `to` cannot be the zero address. - `from` must have a balance of at least `value`. - the caller must have allowance for ``from``'s tokens of at least `value`."
      },
      "transferOwnership(address)": {
        "details": "Transfers ownership of the contract to a new account (`newOwner`). Can only be called by the current owner."
      }
    },
    "version": 1
  },
  "userdoc": {
    "kind": "user",
    "methods": {},
    "version": 1
  }
}